:020000040800F2
:100000000007002065010008B111000889100008F0
:1000100000000000000000000000000000000000E0
:10002000000000000000000000000000B511000802
:100030000000000000000000B3110008B711000824
:1000400077010008770100087701000877010008B0
:1000500077010008770100087701000877010008A0
:100060000000000077010008770100087701000810
:100070007701000877010008770100087701000880
:100080007701000877010008770100087701000870
:1000900000000000770100087701000877010008E0
:1000A0007701000877010008770100087701000850
:1000B0007701000877010008000000000000000040
:1000C00000F002F800F03EF80CA030C80838241800
:1000D0002D18A246671EAB4654465D46AC4201D180
:1000E00000F030F87E460F3E0FCCB6460126334274
:1000F00000D0FB1AA246AB463343184780160000D7
:10010000A0160000103A02D378C878C1FAD8520776
:1001100001D330C830C101D504680C6070470000BD
:100120000023002400250026103A01D378C1FBD813
:10013000520700D330C100D50B6070471FB51FBDFB
:1001400010B510BD00F07BF91146FFF7F7FF01F085
:10015000C7FA00F093F903B4FFF7F2FF03BC00F015
:1001600099F900000748804707480047FEE7FEE787
:10017000FEE7FEE7FEE7FEE704480549054A064BB1
:100180007047000047120008C1000008000100206D
:10019000000700200003002000030020FEB50546F4
:1001A00010460C46184373D0AE468C460020AD1A5C
:1001B00001469C4167D36646002701243D46B61A96
:1001C0009D4102D313463A462124654676462F04C4
:1001D000360C3E432D0CB61A9D4104D3150C1B045E
:1001E0002B4312041034654676462F06360A3E43EA
:1001F0002D0AB61A9D4104D3150E1B022B43120281
:100200000834654676462F0736093E432D09B61A4F
:100210009D4104D3150F1B012B431201241D65467C
:100220007646AF07B6083E43AD08B61A9D4104D3E3
:10023000950F9B002B439200A41C65467646EF0762
:1002400076083E436D08B61A9D411AD392185B4159
:10025000641C16E00018764665464941B71A9D4170
:100260000191009009D36046B11A98418E468446A8
:10027000009801990025401C6941DD0752082A4376
:100280005B08641EE6D57246634603B0F0BDFFE727
:1002900000200146C046C0462A462346F5E701E055
:1002A00004C0091F0429FBD28B0701D50280801CE2
:1002B000C90700D00270704700290BD0C30702D0D5
:1002C0000270401C491E022904D3830702D5028014
:1002D000801C891EE3E70022EEE70022DFE7002210
:1002E00003098B422CD3030A8B4211D300239C4673
:1002F0004EE003460B433CD4002243088B4231D3EB
:1003000003098B421CD3030A8B4201D394463FE07E
:10031000C3098B4201D3CB01C01A524183098B42DE
:1003200001D38B01C01A524143098B4201D34B01C7
:10033000C01A524103098B4201D30B01C01A52412A
:10034000C3088B4201D3CB00C01A524183088B42B1
:1003500001D38B00C01A524143088B4201D34B009A
:10036000C01A5241411A00D201465241104670470C
:100370005DE0CA0F00D04942031000D34042534011
:1003800000229C4603098B422DD3030A8B4212D3D1
:10039000FC22890112BA030A8B420CD38901921103
:1003A0008B4208D3890192118B4204D389013AD040
:1003B000921100E08909C3098B4201D3CB01C01A15
:1003C000524183098B4201D38B01C01A5241430928
:1003D0008B4201D34B01C01A524103098B4201D316
:1003E0000B01C01A5241C3088B4201D3CB00C01A83
:1003F000524183088B4201D38B00C01A5241D9D29B
:1004000043088B4201D34B00C01A5241411A00D21B
:100410000146634652415B10104601D34042002B17
:1004200000D54942704763465B1000D3404201B596
:100430000020C046C04602BD7047704770477546F1
:1004400000F024F8AE46050069465346C008C000D7
:10045000854618B020B5FFF78FFE60BC002749081D
:10046000B6460026C0C5C0C5C0C5C0C5C0C5C0C54C
:10047000C0C5C0C5403D49008D46704710B5044613
:10048000C046C0462046FFF766FE10BD00487047D4
:10049000A000002001491820ABBEFEE726000200A4
:1004A000704772B6FEE70000F0B5002303249AE01F
:1004B0002A4601259D402A407ED00E79B607B60F08
:1004C000012E01D0022E16D186682746B4465E0062
:1004D000B646B7406646BE43B446CF687646B74098
:1004E0006646374387604668AE430D79ED06ED0FEB
:1004F0009D40354345600D79ED43AD0708D0C56893
:100500005F002646BE40B5438E68BE402E43C6609F
:100510000D79AD07AD0F022D0ED1DD08AD002D1800
:10052000AC462D6A5E07F60E0F27B740BD430F6934
:10053000B7402F4365462F6205685F002646BE40E0
:10054000B5430E79B607B60FBE402E4306604D6820
:10055000AD03AD0F46D09E08264DB6007519AC46CA
:100560002D6E9E07F60E0F27B740BD4305273F07A8
:10057000B84201D100270FE01F4FB84201D1012737
:100580000AE01E4FB84201D1022705E01C4FB842D5
:1005900001D1032700E00527B7402F43154D6646DC
:1005A00037662D684E689543F60200D51543114F06
:1005B0003D607D68954300E014E04E68B60200D5CA
:1005C00015437D600B4D80356E684F689643BF03C1
:1005D00000D516436E602E684F689643FF0300D522
:1005E00016432E605B1C0A681546DA4000D05FE7B0
:1005F000F0BD000000180240000400500008005048
:10060000000C0050002A01D0816170478162704760
:10061000014880687047000000000020024881689F
:1006200002788918816070470000002010B50848E2
:1006300000240168821511430160032000F00AF8CC
:10064000002801D0012401E000F028F8204610BD68
:100650000020024070B50F4E002431780546002975
:1006600015D07D20C000FFF73AFE01460A48006819
:10067000FFF735FE00F024FC002808D1042D06D237
:1006800000222946401E00F01FF8756000E001249A
:10069000204670BD000000200C00002008B509486D
:1006A0000168012211430160006810400090054874
:1006B0004038C26B01040A43C263C06B084000901B
:1006C00008BD00004010024010B500F0E7FF10BD6B
:1006D00010B50F4C2168032252029143014321605F
:1006E000C11FFF39FA390ED10A4806210068484374
:1006F0000949FFF7F4FD401C02E0002805D0401E28
:1007000061694905F9D4002010BD032010BD000027
:10071000007000400C00002040420F00F8B5044675
:1007200000680026664D800358D56548002740388C
:10073000C06BC00009D462484038C26B01040A4350
:10074000C263C06B0840012700905E4801688215B3
:1007500011430160FFF75CFF009005E0FFF758FFD1
:100760000099401A022825D856480068C005F5D5DA
:10077000E8690321090208400FD0616A81420CD068
:10078000E86903210902EA698843012109040A434F
:10079000EA61EA698A43EA61E861C0070FD0FFF7BE
:1007A00037FF009008E0FFF733FF0099411A4648F1
:1007B000814201D9032609E0E8698007F3D5E86999
:1007C000032109028843616A0843E861002F05D0CC
:1007D0003B484038C26B01048A43C2632078C0079B
:1007E00005D06869616880088000084368612078E6
:1007F000C00606D56869032189028843A1680843B9
:1008000068612088800506D56869032189048843CA
:100810006169084368612088400506D5686903213D
:1008200009058843A169084368612078800606D5D8
:100830006869032109038843E168084368612088E7
:10084000400411D56869E169800080080843686147
:100850000121E0698907884206D119484038C168FA
:10086000012212041143C1602068800210D568691A
:1008700001218905226A884310436861206A884201
:1008800006D10F484038C168012212061143C160E9
:100890002088000512D568690321890388432169EE
:1008A00008436861012120698903884206D1044810
:1008B0004038C168012212041143C1603046F8BDBE
:1008C000401002400070004088130000F8B50F4649
:1008D000060043D04D4D28684007400FB84213D260
:1008E0002868C008C00038432860FFF791FE04461E
:1008F00005E0FFF78DFE011B4548814261D828685D
:100900004007400FB842F4D13068424C81070DD502
:10091000400704D5A068072109030843A060A06828
:100920000F2109028843B1680843A0603078C007EE
:1009300032D0706801280AD002280BD000280FD0CE
:100940003449403103280ED0C969890704E0216881
:10095000890301E021688901002906DB0120F8BD37
:1009600021684905F8E7096AEFE7A168C908C900E5
:100970000143A160FFF74CFE009006E0FFF748FE40
:100980000099411A224881421BD8A06838210840AA
:100990007168C9008842F1D128684007400FB84209
:1009A00017D91A480168C908C90039430160FFF71F
:1009B0002FFE054607E0FFF72BFE411B144881423E
:1009C00001D90320F8BD114800684007400FB84224
:1009D000F1D13078400706D5A06807210903884384
:1009E000F1680843A06000F031F8A1683C22890951
:1009F0001140094A515CC906C90EC8400749086040
:100A000007480068FFF726FEF8BD000000200240FE
:100A100088130000001002401C1700080C00002082
:100A2000040000200648074900688968064A49040E
:100A3000490F8900515CC906C90EC84070470000C3
:100A40000C000020001002405C17000810B5204C7C
:100A5000A068204A8006400F16D0A0688006410F8B
:100A6000501001290FD0A1688906490F022912D020
:100A7000A0688006400F042823D0A0688006400F9D
:100A8000032821D0002010BD206801218004400FE0
:100A90008140104612E0E1688B07E1689B0F490630
:100AA000490F491C032B00D01046FFF718FCE168E2
:100AB0004904490E4843E168490F491CFFF70FFC00
:100AC00010BD0120C00310BD7D20000210BD00003C
:100AD000001002400024F400F8B504007ED0207815
:100AE0003827C007ED4D002846D0A868E96838408F
:100AF0008907890F102802D008280BD001E00329AC
:100B000008D001206268000482420AD129680143AA
:100B1000296015E0286880032ED560680028DDD0A4
:100B20002AE0052301211B0489049A422A6802D184
:100B30000A432A60EAE782432A60286888432860DB
:100B4000606800280CD0FFF763FD064604E0FFF75D
:100B50005FFD801B642873D828688003F7D50BE0FD
:100B6000FFF756FD064604E0FFF752FD801B6428A0
:100B7000F1D828688003F7D42078800769D5A86861
:100B8000E96838408A070721920FC902102802D06D
:100B9000002813D001E0022A10D0E068002846D0D7
:100BA000286888432169084328602868FF210131AB
:100BB00008432860FFF72CFD06462CE02A68520502
:100BC00002D5E268002A89D06A687F231B029A4313
:100BD00063691B021A436A60002800E08DE00ED1B1
:100BE0002868884321690843286028680121800417
:100BF000400F8140AA48FFF772FBAA490860AA4843
:100C00000068FFF727FD002877D122E0FFF700FDFD
:100C1000801B02289FD828684005F7D568687F2187
:100C200009028843616909020843686011E0296884
:100C3000FF20013081432960FFF7EAFC064605E00A
:100C400098E0FFF7E5FC801B022884D8286840055F
:100C5000F7D42078954E00072ED5A8688006400F5F
:100C600003280AD0A0690028306A16D00121084361
:100C70003062FFF7CDFC07460BE0306A80071BD5DA
:100C8000A06900289FD017E0FFF7C2FCC01B022814
:100C900070D8306A8007F7D50EE040084000306217
:100CA000FFF7B6FC074604E0FFF7B2FCC01B0228C2
:100CB00060D8306A8007F7D4207840076CD5A868E0
:100CC00000278006400F042818D0E86BC00008D425
:100CD000E96B012000070143E963E96B014001274B
:100CE000009173480168C90519D401688215114340
:100CF0000160FFF78DFC00900DE083E0F069800754
:100D00004AD5A06800287DD046E0FFF781FC009915
:100D1000401A02282ED866480068C005F5D5A1689B
:100D2000012910D004200529F16911D04908490092
:100D3000F161F1698143F161A068002816D0FFF7E5
:100D400067FC00900EE0F06901210843F061F3E7D1
:100D50000143F161F7E7FFF75BFC0099411A554841
:100D6000814267D8F0698007F5D50EE0FFF750FCA7
:100D7000009007E05EE0FFF74BFC0099411A4D48F8
:100D8000814257D8F0698007F5D4002F04D0E86B72
:100D9000012109078843E863E06900287BD0A9683E
:100DA0008906490F02294FD00126360602282868F5
:100DB00005D0B0432860FFF72BFC04463CE0B0436D
:100DC0002860FFF725FC074604E0FFF721FCC01B65
:100DD00002282FD828688001F7D4616A206AA26AA5
:100DE0000843E16A120211430843216B0843616B17
:100DF0000843E968304A11400843E86028683043F6
:100E0000286000E045E0E868012109070843E86040
:100E1000FFF7FEFB044604E0FFF7FAFB001B022885
:100E200008D828688001F7D535E0FFF7F1FB001BF3
:100E3000022801D90320F8BD28688001F5D4E868AC
:100E40001E490840E86026E00128F4D0E868226ADC
:100E50008107890F91421CD17021626A0140914241
:100E600017D17F21A26A090201401202914210D1DA
:100E70001F214904E26A014091420AD10721490633
:100E8000226B0140914204D1400F616B40078842C0
:100E900001D00120F8BD0020F8BD00000010024084
:100EA0000024F4000C000020040000204010024048
:100EB00000700040881300008C80C111FCFFFEEE22
:100EC000094910B5401E884201D9012010BD074CC8
:100ED00060610321081F00F0E1FB0020A0610720F2
:100EE0002061002010BD0000FFFFFF0000E000E0D7
:100EF00010B5014680310A78012A15D001220A7006
:100F000024224A600268136814686408640014604C
:100F100001225207934300224266006803602020AA
:100F200048600A70104610BD022010BD70B504461E
:100F300005468034207801281AD001202070242012
:100F400060602868066802685208520002602868DB
:100F5000826807235B069A430A438260284600F0B2
:100F600073F928680660202060600020207070BD42
:100F7000022070BD70B504460546803420780128F3
:100F800019D001202070242060602868066802685B
:100F900052085200026028688268D200D2080A43D0
:100FA0008260284600F050F92868066020206060C2
:100FB0000020207070BD022070BD70B5040005D007
:100FC000254680356868002802D006E0012070BD03
:100FD00000202870204600F027F824206860206850
:100FE0000168490849000160204600F0E7F901283E
:100FF000EDD0A06A002802D0204600F047F9206812
:1010000041680922D20291434160206881682A2206
:1010100091438160206801680122114301602046EC
:1010200000F09AF970BD000010B586B00446142196
:101030006846FFF752F91149206888421CD11048D0
:101040000268012189030A43026000680840059094
:101050000B484038426B02210A434263406B0191C6
:1010600008400590C020009000200290039004905A
:1010700069460448FFF718FA06B010BD0038014071
:101080004010024000040050FEE70000F0B587B0B9
:1010900014216846FFF721F92848426B02210A43D0
:1010A0004263426B0A400592416B0125294341632B
:1010B000416B29400591426B04210A434263406B16
:1010C0001F4F0840FF2105902A460C313846FFF794
:1010D00099FA812636020520012231460007FFF7E2
:1010E00091FA012240211748FFF78CFA09200024C9
:1010F000009001956946029503943846FFF7D4F9AC
:10110000F011009002946946019503943846FFF768
:10111000CBF90520029469460007009601950394D7
:10112000FFF7C2F9402000900294694601950394AC
:101130000448FFF7B9F907B0F0BD00000010024005
:10114000000400500008005010B51848164901600E
:10115000E1214902416000218160C160016181613A
:10116000C16101620C22416242618162FFF725FF89
:10117000002801D0FFF795F900210C48FFF7FAFE8F
:10118000002801D0FFF78DF900210848FFF7CEFEB7
:10119000002801D0FFF785F90448FFF7A9FE0028D1
:1011A00001D0FFF77EF910BD00380140100000208B
:1011B000FEE77047704710B5FFF730FA10BD30B545
:1011C0009DB038216846FFF788F8002518951995D5
:1011D0001A9528210EA81B95FFF77FF801204002E1
:1011E000FFF776FA0224E001039000944020059076
:1011F00008200A9080030B90079400020C9008943A
:10120000000104950D9009956846FFF765FC0028DC
:1012100001D072B6FEE7072018A931C1022118A833
:101220001B95FFF753FB002801D072B6FEE70120A3
:101230000E900F950EA8FFF771FA002801D072B634
:10124000FEE71DB030BD7047F8B50446416E40342E
:10125000002915D000688168806809014D0F0A4E89
:10126000400F3746315C083F385CC000FFF737F865
:101270006085785D715DC000FFF731F82085F8BDAD
:1012800001206085FAE700001217000810B5018DF3
:10129000C90707D001684A6801235B049A43C36AFF
:1012A0001A434A60018D890707D501684A680123FE
:1012B0001B049A43036B1A434A60018D490707D503
:1012C00001684A6801239B049A43436B1A434A60AE
:1012D000018D090707D501684A680123DB039A439A
:1012E000836B1A434A60018DC90607D5026891686D
:1012F00001231B039943C36B19439160018D890638
:1013000007D501688A6801235B039A43036C1A437B
:101310008A60018D490612D503685A6801210905C2
:10132000446C8A4322435A60426C8A4207D1026865
:10133000516803235B059943836C19435160018D08
:10134000090607D501684A680123DB04C06C9A438B
:1013500002434A6010BD0000FEB5054600268035F8
:101360000446EE60FFF754F9019020680068124FC0
:10137000000709D501210097002249052046019B5D
:1013800000F022F900280DD12068006840070BD535
:1013900001210097002289052046019B00F014F9E5
:1013A000002801D00320FEBD20206860A860E6660A
:1013B0002E700020FEBD0000FFFFFF01F8B50446BF
:1013C000016880682369E5691843636900262B4337
:1013D0001843734A0B68734D2B4003430B6020681E
:1013E000416803231B039943E36819434160216863
:1013F000A069914201D0236A18438B686A4D2B4043
:1014000003438B602068C16A636A090909011943B3
:10141000C1626649236866488B420AD140698007E9
:10142000800F09D001282CD0022828D0032816D1FB
:1014300013E060498B4201D1002111E093420ED1AB
:1014400041690320800201400AD001208002091A6C
:1014500017D0091A13D0814201D1082100E01021D0
:101460000120554D554FC00393423DD100290AD06C
:10147000022911D0042909D0082934D10BE0022116
:10148000EEE70421ECE7FFF7CDFA01E0FFF7DEFA23
:10149000050001D179E00546606A4000395A2846C6
:1014A0000091FEF71CFF676879007918814267D8C0
:1014B0003903814264D3002328461946009AFEF777
:1014C0006DFE020E0902030278081143181800226B
:1014D00051413A460023FEF761FE03210902384AD2
:1014E000411A91424FD94BE0E269824227D100294B
:1014F00006D0022907D0042907D0082940D108E0E6
:10150000FFF790FA03E0284603E0FFF79FFA002870
:101510003BD0616A4900795AFEF7E1FE61684000FC
:101520004A088018FEF7DBFE0146264A1039914230
:1015300026D8511C01400007400F084323E0002932
:1015400006D0022907D0042907D0082918D108E0BD
:10155000FFF768FA03E0284603E0FFF777FA002870
:1015600013D0616A4900795AFEF7B9FE61684A08EA
:101570008018FEF7B4FE0146124A1039914201D993
:10158000012602E080B22168C86020460121403077
:10159000418501850020206760673046F8BD000066
:1015A00000800040F369FFCFFFF4FF1100380140D5
:1015B00040100240004400400024F400F2160008ED
:1015C000FFFC0F00EFFF0000FFB581B00546174696
:1015D000044680350A9E54E0701C52D0FFF718F87C
:1015E0000499401AB0422FD8002E2DD020680168EF
:1015F000490746D5C069C043000542D4012021688F
:10160000C0020862EFF31080012181F31088216885
:101610000B68FF22A13293430B6080F31088EFF335
:101620001080012181F3108821688A6852085200D5
:101630008A6080F3108820206860A860E86000203D
:101640002870032005B0F0BDEFF31080012181F375
:10165000108821680A68FF23A1339A430A6080F347
:101660001088EFF31080012181F3108821688A68C7
:10167000520852008A6080F3108820206860A860B9
:10168000DDE72068C1690298884304D00020B84291
:10169000A2D00020D6E70120F9E700008307FF224F
:1016A000DB0E9A408907090E9940002808DB830861
:1016B00009489B001B18186890430843186070473E
:1016C0000007000F0838830804489B001B18D869DE
:1016D00090430843D861704700E400E000ED00E06B
:1016E000FEF7A4FFFFF76BFDFFF7D0FCFFF72CFD23
:1016F000FEE7010002000400060008000A000C00DA
:1017000010002000400080000001010101030701DA
:1017100000000804020408010101000000000000AC
:1017200000000000000000000000000000000000B9
:1017300000000000000000000000000001000000A8
:10174000020000000300000004000000060000008A
:101750000700000008000000090000000000000071
:101760000000000000000000000000000100000078
:101770000200000003000000040000009C170008A5
:10178000000000201000000004010008AC17000851
:1017900010000020F00600002001000801000000F9
:0C17A00004000000000000000024F40021
:04000005080000C12E
:00000001FF
