:020000040800F2
:100000007006002065010008AF0A0008AD0A00086C
:1000100000000000000000000000000000000000E0
:10002000000000000000000000000000B30A00080B
:100030000000000000000000B10A0008B50A000836
:1000400077010008770100087701000877010008B0
:1000500077010008770100087701000877010008A0
:100060000000000077010008770100087701000810
:100070007701000877010008770100087701000880
:100080007701000877010008770100087701000870
:1000900000000000770100087701000877010008E0
:1000A0007701000877010008770100087701000850
:1000B0007701000877010008000000000000000040
:1000C00000F002F800F03EF80CA030C80838241800
:1000D0002D18A246671EAB4654465D46AC4201D180
:1000E00000F030F87E460F3E0FCCB6460126334274
:1000F00000D0FB1AA246AB4633431847C00A0000A3
:10010000E00A0000103A02D378C878C1FAD8520742
:1001100001D330C830C101D504680C6070470000BD
:100120000023002400250026103A01D378C1FBD813
:10013000520700D330C100D50B6070471FB51FBDFB
:1001400010B510BD00F0FAF81146FFF7F7FF00F008
:100150000FFD00F012F903B4FFF7F2FF03BC00F04B
:1001600019F900000748804707480047FEE7FEE707
:10017000FEE7FEE7FEE7FEE704480549054A064BB1
:1001800070470000290B0008C10000087000002023
:1001900070060020700200207002002001E004C000
:1001A000091F0429FBD28B0701D50280801CC907D7
:1001B00000D00270704700290BD0C30702D0027034
:1001C000401C491E022904D3830702D50280801CEB
:1001D000891EE3E70022EEE70022DFE700220309A1
:1001E0008B422CD3030A8B4211D300239C464EE052
:1001F00003460B433CD4002243088B4231D303090E
:100200008B421CD3030A8B4201D394463FE0C309BF
:100210008B4201D3CB01C01A524183098B4201D3D7
:100220008B01C01A524143098B4201D34B01C01AC2
:10023000524103098B4201D30B01C01A5241C3083A
:100240008B4201D3CB00C01A524183088B4201D3A9
:100250008B00C01A524143088B4201D34B00C01A95
:100260005241411A00D201465241104670475DE0AA
:10027000CA0F00D04942031000D34042534000222D
:100280009C4603098B422DD3030A8B4212D3FC22D6
:10029000890112BA030A8B420CD3890192118B4255
:1002A00008D3890192118B4204D389013AD092116B
:1002B00000E08909C3098B4201D3CB01C01A524126
:1002C00083098B4201D38B01C01A524143098B42EF
:1002D00001D34B01C01A524103098B4201D30B01D8
:1002E000C01A5241C3088B4201D3CB00C01A5241FD
:1002F00083088B4201D38B00C01A5241D9D24308E4
:100300008B4201D34B00C01A5241411A00D2014620
:10031000634652415B10104601D34042002B00D58A
:100320004942704763465B1000D3404201B500204C
:10033000C046C04602BD704770477047754600F022
:1003400025F8AE46050069465346C008C0008546FC
:1003500018B020B5FFF710FF60BC00274908B6466B
:100360000026C0C5C0C5C0C5C0C5C0C5C0C5C0C5C4
:10037000C0C5403D49008D46704710B50446C04693
:10038000C0462046FFF7E7FE10BD0000004870475A
:100390001000002001491820ABBEFEE72600020035
:1003A000704700000148806870470000000000208E
:1003B0000248816802788918816070470000002037
:1003C00010B508480024016882151143016003201C
:1003D00000F00AF8002801D0012401E000F028F81C
:1003E000204610BD0020024070B50F4E0024317829
:1003F0000546002915D07D20C000FFF7EFFE01461D
:100400000A480068FFF7EAFE00F038FB002808D130
:10041000042D06D200222946401E00F01FF8756008
:1004200000E00124204670BD000000200C000020E8
:1004300008B50948016801221143016000681040B5
:10044000009005484038C26B01040A43C263C06B88
:100450000840009008BD00004010024010B500F0B8
:1004600065FB10BD10B50F4C216803225202914369
:1004700001432160C11FFF39FA390ED10A48062114
:10048000006848430949FFF7A9FE401C02E0002824
:1004900005D0401E61694905F9D4002010BD032034
:1004A00010BD0000007000400C00002040420F0012
:1004B000F8B50F46060043D04D4D28684007400F61
:1004C000B84213D22868C008C00038432860FFF73C
:1004D00069FF044605E0FFF765FF011B45488142BF
:1004E00061D828684007400FB842F4D13068424CC8
:1004F00081070DD5400704D5A068072109030843EB
:10050000A060A0680F2109028843B1680843A06079
:100510003078C00732D0706801280AD002280BD08A
:1005200000280FD03449403103280ED0C96989070B
:1005300004E02168890301E021688901002906DBC4
:100540000120F8BD21684905F8E7096AEFE7A168CD
:10055000C908C9000143A160FFF724FF009006E02D
:10056000FFF720FF0099411A224881421BD8A0685A
:10057000382108407168C9008842F1D128684007D5
:10058000400FB84217D91A480168C908C900394351
:100590000160FFF707FF054607E0FFF703FF411B78
:1005A0001448814201D90320F8BD11480068400772
:1005B000400FB842F1D13078400706D5A068072136
:1005C00009038843F1680843A06000F01DF8A168A2
:1005D0003C2289091140094A515CC906C90EC8402C
:1005E0000749086007480068FFF7FEFEF8BD0000F5
:1005F0000020024088130000001002407C0B00081D
:100600000C0000200400002010B5204CA068204AF7
:100610008006400F16D0A0688006410F50100129B7
:100620000FD0A1688906490F022912D0A068800660
:10063000400F042823D0A0688006400F032821D053
:10064000002010BD206801218004400F8140104629
:1006500012E0E1688B07E1689B0F4906490F491CCE
:10066000032B00D01046FFF7B9FDE1684904490E9D
:100670004843E168490F491CFFF7B0FD10BD012058
:10068000C00310BD7D20000210BD0000001002401C
:100690000024F400F8B504007ED020783827C00785
:1006A000ED4D002846D0A868E96838408907890FD1
:1006B000102802D008280BD001E0032908D001201F
:1006C0006268000482420AD129680143296015E06A
:1006D000286880032ED560680028DDD02AE0052335
:1006E00001211B0489049A422A6802D10A432A6024
:1006F000EAE782432A602868884328606068002807
:100700000CD0FFF74FFE064604E0FFF74BFE801BC0
:10071000642873D828688003F7D50BE0FFF742FE02
:10072000064604E0FFF73EFE801B6428F1D82868E7
:100730008003F7D42078800769D5A868E968384035
:100740008A070721920FC902102802D0002813D06F
:1007500001E0022A10D0E068002846D028688843CB
:100760002169084328602868FF2101310843286077
:10077000FFF718FE06462CE02A68520502D5E2680B
:10078000002A89D06A687F231B029A4363691B028F
:100790001A436A60002800E08DE00ED12868884383
:1007A000216908432860286801218004400F8140A6
:1007B000AA48FFF713FDAA490860AA480068FFF796
:1007C00013FE002877D122E0FFF7ECFD801B022802
:1007D0009FD828684005F7D568687F2109028843BB
:1007E000616909020843686011E02968FF2001304F
:1007F00081432960FFF7D6FD064605E098E0FFF744
:10080000D1FD801B022884D828684005F7D42078C1
:10081000954E00072ED5A8688006400F03280AD001
:10082000A0690028306A16D0012108433062FFF722
:10083000B9FD07460BE0306A80071BD5A069002888
:100840009FD017E0FFF7AEFDC01B022870D8306ABA
:100850008007F7D50EE0400840003062FFF7A2FDA8
:10086000074604E0FFF79EFDC01B022860D8306AEF
:100870008007F7D4207840076CD5A8680027800649
:10088000400F042818D0E86BC00008D4E96B0120A1
:1008900000070143E963E96B0140012700917348B8
:1008A0000168C90519D40168821511430160FFF779
:1008B00079FD00900DE083E0F06980074AD5A068DB
:1008C00000287DD046E0FFF76DFD0099401A022810
:1008D0002ED866480068C005F5D5A168012910D05A
:1008E00004200529F16911D049084900F161F16935
:1008F0008143F161A068002816D0FFF753FD0090F6
:100900000EE0F06901210843F061F3E70143F16172
:10091000F7E7FFF747FD0099411A5548814267D82C
:10092000F0698007F5D50EE0FFF73CFD009007E089
:100930005EE0FFF737FD0099411A4D48814257D8D4
:10094000F0698007F5D4002F04D0E86B0121090776
:100950008843E863E06900287BD0A9688906490FCD
:1009600002294FD0012636060228286805D0B04358
:100970002860FFF717FD04463CE0B0432860FFF70E
:1009800011FD074604E0FFF70DFDC01B02282FD81C
:1009900028688001F7D4616A206AA26A0843E16A84
:1009A000120211430843216B0843616B0843E96855
:1009B000304A11400843E86028683043286000E06E
:1009C00045E0E868012109070843E860FFF7EAFC11
:1009D000044604E0FFF7E6FC001B022808D828685C
:1009E0008001F7D535E0FFF7DDFC001B022801D9B7
:1009F0000320F8BD28688001F5D4E8681E49084046
:100A0000E86026E00128F4D0E868226A8107890FAF
:100A100091421CD17021626A0140914217D17F211D
:100A2000A26A090201401202914210D11F21490419
:100A3000E26A014091420AD107214906226B014036
:100A4000914204D1400F616B4007884201D00120E0
:100A5000F8BD0020F8BD0000001002400024F400A2
:100A60000C000020040000204010024000700040F4
:100A7000881300008C80C111FCFFFEEE094910B5FF
:100A8000401E884201D9012010BD074C606103213E
:100A9000081F00F04BF80020A06107202061002013
:100AA00010BD0000FFFFFF0000E000E0FEE7FEE7F2
:100AB0007047704710B5FFF77BFC10BD30B593B0A1
:100AC00038216846FFF788FB002501200E950F9519
:100AD000109540021195FFF7C5FC0224E001039038
:100AE00000944020059008200A9080030B90079402
:100AF00000020C900894000104950D900995684639
:100B0000FFF7C8FD002801D072B6FEE707200EA946
:100B100031C102210EA81195FFF7CAFC002801D0AF
:100B200072B6FEE713B030BD704700008307FF22A6
:100B3000DB0E9A408907090E9940002808DB8308DC
:100B400009489B001B1818689043084318607047B9
:100B50000007000F0838830804489B001B18D86959
:100B600090430843D861704700E400E000ED00E0E6
:100B7000FFF726FCFFF7A2FFFEE7000000000000E1
:100B80000000000000000000000000000000000065
:100B90000000000000000000000000000100000054
:100BA0000200000003000000040000000600000036
:100BB000070000000800000009000000DC0B00082E
:100BC000000000201000000004010008EC0B0008E9
:100BD0001000002060060000200100080100000055
:0C0BE00004000000000000000024F400ED
:04000005080000C12E
:00000001FF
