:020000040800F2
:10000000F8040020D900000859140008C1120008A3
:1000100000000000000000000000000000000000E0
:100020000000000000000000000000005D14000857
:1000300000000000000000005B1400085F140008CE
:10004000EB000008EB000008EB000008EB000008E4
:10005000EB000008EB000008EB000008EB000008D4
:1000600000000000EB000008EB000008EB000008B7
:10007000EB000008EB000008EB000008E9140008A2
:10008000EB000008EB000008EB000008EB000008A4
:1000900000000000EB000008EB000008EB00000887
:1000A000EB000008EB000008EB000008EB00000884
:1000B000EB000008EB00000800000000000000005A
:1000C0000448854600F090F800480047D11C00081D
:1000D000C046C046F8040020044880470448004752
:1000E000FEE7FEE7FEE7FEE7FEE7FEE7E7140008AF
:1000F000C100000830B50B46014600202022012433
:1001000009E00D46D5409D4205D31D469540491B4B
:100110002546954040191546521E002DF1DC30BD94
:10012000F0B51FB40646002082B005464024019178
:1001300000901BE0019922460F46304600F042F83D
:10014000049A059B801A994110D3104619462246FD
:1001500000F028F8361A8F4101972246012000212D
:10016000009F00F01FF838184D4100902046641E93
:100170000028DFDC019B00982946324607B0F0BD1D
:10018000D2B201E00270401C491EFBD2704700222F
:10019000F6E710B513460A4604461946FFF7F0FF86
:1001A000204610BD10B5202A04DB0146203A9140BC
:1001B000002010BD914020239C1A0346E3401943C0
:1001C000904010BD10B5202A04DB0846203AD040EC
:1001D000002110BD0B46D340D0402024A21A9140EC
:1001E0000843194610BD0000064C0125064E05E0E7
:1001F000E36807CC2B430C3C98471034B442F7D348
:10020000FFF762FFB01D0008D01D000872B602495A
:1002100002A001F017FCFAE7181D000825730D0A6B
:1002200000000000F0B5002303249AE02A460125CF
:100230009D402A407ED00E79B607B60F012E01D020
:10024000022E16D186682746B4465E00B646B740F1
:100250006646BE43B446CF687646B74066463743E7
:1002600087604668AE430D79ED06ED0F9D4035433E
:1002700045600D79ED43AD0708D0C5685F0026469F
:10028000BE40B5438E68BE402E43C6600D79AD07B3
:10029000AD0F022D0ED1DD08AD002D18AC462D6A34
:1002A0005E07F60E0F27B740BD430F69B7402F43D7
:1002B00065462F6205685F002646BE40B5430E794D
:1002C000B607B60FBE402E4306604D68AD03AD0FB6
:1002D00046D09E08264DB6007519AC462D6E9E0779
:1002E000F60E0F27B740BD4305273F07B84201D19F
:1002F00000270FE01F4FB84201D101270AE01E4F2F
:10030000B84201D1022705E01C4FB84201D10327B2
:1003100000E00527B7402F43154D664637662D6828
:100320004E689543F60200D51543114F3D607D6838
:10033000954300E014E04E68B60200D515437D6099
:100340000B4D80356E684F689643BF0300D516434A
:100350006E602E684F689643FF0300D516432E60EB
:100360005B1C0A681546DA4000D05FE7F0BD00006C
:10037000001802400004005000080050000C00501B
:10038000002A01D08161704781627047014880680E
:100390007047000008000020024881680278891830
:1003A000816070470800002010B5084800240168EB
:1003B000821511430160032000F00AF8002801D0E3
:1003C000012401E000F028F8204610BD0020024082
:1003D00070B50F4E002431780546002915D07D20D8
:1003E000C000FFF787FE01460A480068FFF782FE5B
:1003F00000F030FC002808D1042D06D20022294646
:10040000401E00F02BF8756000E00124204670BD0E
:10041000080000201400002008B5094801680122E6
:100420001143016000681040009005484038C26BDD
:1004300001040A43C263C06B0840009008BD00007D
:1004400040100240002805DBC106C90E012088408B
:10045000014908607047000000E100E010B501F0BC
:1004600001FB10BD10B50F4C2168032252029143CD
:1004700001432160C11FFF39FA390ED10A48062114
:10048000006848430949FFF735FE401C02E0002898
:1004900005D0401E61694905F9D4002010BD032034
:1004A00010BD0000007000401400002040420F000A
:1004B000F8B5044600680026664D800358D56548A7
:1004C00000274038C06BC00009D462484038C26B76
:1004D00001040A43C263C06B0840012700905E48D4
:1004E0000168821511430160FFF750FF009005E09D
:1004F000FFF74CFF0099401A022825D8564800689B
:10050000C005F5D5E8690321090208400FD0616AEA
:1005100081420CD0E86903210902EA69884301217C
:1005200009040A43EA61EA698A43EA61E861C007AB
:100530000FD0FFF72BFF009008E0FFF727FF00998F
:10054000411A4648814201D9032609E0E86980073B
:10055000F3D5E869032109028843616A0843E86129
:10056000002F05D03B484038C26B01048A43C26368
:100570002078C00705D0686961688008800008435A
:1005800068612078C00606D568690321890288431E
:10059000A168084368612088800506D56869032141
:1005A000890488436169084368612088400506D54D
:1005B0006869032109058843A169084368612078B7
:1005C000800606D56869032109038843E16808436A
:1005D00068612088400411D56869E169800080085D
:1005E000084368610121E0698907884206D11948FA
:1005F0004038C168012212041143C16020688002A2
:1006000010D5686901218905226A88431043686111
:10061000206A884206D10F484038C168012212067C
:100620001143C1602088000512D568690321890340
:100630008843216908436861012120698903884250
:1006400006D104484038C168012212041143C16038
:100650003046F8BD40100240007000408813000092
:10066000F8B50F46060043D04D4D28684007400FAF
:10067000B84213D22868C008C00038432860FFF78A
:1006800085FE044605E0FFF781FE011B45488142D7
:1006900061D828684007400FB842F4D13068424C16
:1006A00081070DD5400704D5A06807210903084339
:1006B000A060A0680F2109028843B1680843A060C8
:1006C0003078C00732D0706801280AD002280BD0D9
:1006D00000280FD03449403103280ED0C96989075A
:1006E00004E02168890301E021688901002906DB13
:1006F0000120F8BD21684905F8E7096AEFE7A1681C
:10070000C908C9000143A160FFF740FE009006E060
:10071000FFF73CFE0099411A224881421BD8A0688D
:10072000382108407168C9008842F1D12868400723
:10073000400FB84217D91A480168C908C90039439F
:100740000160FFF723FE054607E0FFF71FFE411B90
:100750001448814201D90320F8BD114800684007C0
:10076000400FB842F1D13078400706D5A068072184
:1007700009038843F1680843A06000F031F8A168DC
:100780003C2289091140094A515CC906C90EC8407A
:100790000749086007480068FFF71AFEF8BD000027
:1007A000002002408813000000100240501D000885
:1007B000140000200C0000200648074900688968E2
:1007C000064A4904490F8900515CC906C90EC84050
:1007D000704700001400002000100240901D000827
:1007E00010B5204CA068204A8006400F16D0A068A3
:1007F0008006410F501001290FD0A1688906490FCA
:10080000022912D0A0688006400F042823D0A068D7
:100810008006400F032821D0002010BD2068012150
:100820008004400F8140104612E0E1688B07E168C8
:100830009B0F4906490F491C032B00D01046FFF7B8
:1008400059FCE1684904490E4843E168490F491CD5
:10085000FFF750FC10BD0120C00310BD7D20000239
:1008600010BD0000001002400024F400F8B50400A0
:100870007ED020783827C007ED4D002846D0A868E4
:10088000E96838408907890F102802D008280BD062
:1008900001E0032908D001206268000482420AD1E5
:1008A00029680143296015E0286880032ED5606817
:1008B0000028DDD02AE0052301211B0489049A4287
:1008C0002A6802D10A432A60EAE782432A6028683C
:1008D00088432860606800280CD0FFF757FD064663
:1008E00004E0FFF753FD801B642873D82868800359
:1008F000F7D50BE0FFF74AFD064604E0FFF746FD9B
:10090000801B6428F1D828688003F7D420788007FA
:1009100069D5A868E96838408A070721920FC9029B
:10092000102802D0002813D001E0022A10D0E0687D
:10093000002846D028688843216908432860286831
:10094000FF21013108432860FFF720FD06462CE017
:100950002A68520502D5E268002A89D06A687F2396
:100960001B029A4363691B021A436A60002800E075
:100970008DE00ED1286888432169084328602868E3
:1009800001218004400F8140AA48FFF7B3FBAA4928
:100990000860AA480068FFF71BFD002877D122E015
:1009A000FFF7F4FC801B02289FD828684005F7D584
:1009B00068687F2109028843616909020843686009
:1009C00011E02968FF20013081432960FFF7DEFC38
:1009D000064605E098E0FFF7D9FC801B022884D882
:1009E00028684005F7D42078954E00072ED5A868D2
:1009F0008006400F03280AD0A0690028306A16D06C
:100A0000012108433062FFF7C1FC07460BE0306A62
:100A100080071BD5A06900289FD017E0FFF7B6FC20
:100A2000C01B022870D8306A8007F7D50EE0400856
:100A300040003062FFF7AAFC074604E0FFF7A6FC7F
:100A4000C01B022860D8306A8007F7D4207840079E
:100A50006CD5A86800278006400F042818D0E86BE2
:100A6000C00008D4E96B012000070143E963E96B8A
:100A700001400127009173480168C90519D4016834
:100A8000821511430160FFF781FC00900DE083E0C7
:100A9000F06980074AD5A06800287DD046E0FFF7BE
:100AA00075FC0099401A02282ED866480068C005D7
:100AB000F5D5A168012910D004200529F16911D0CC
:100AC00049084900F161F1698143F161A06800289A
:100AD00016D0FFF75BFC00900EE0F069012108439F
:100AE000F061F3E70143F161F7E7FFF74FFC00998D
:100AF000411A5548814267D8F0698007F5D50EE064
:100B0000FFF744FC009007E05EE0FFF73FFC009930
:100B1000411A4D48814257D8F0698007F5D4002F1B
:100B200004D0E86B012109078843E863E0690028E5
:100B30007BD0A9688906490F02294FD001263606C5
:100B40000228286805D0B0432860FFF71FFC044640
:100B50003CE0B0432860FFF719FC074604E0FFF7CC
:100B600015FCC01B02282FD828688001F7D4616AC1
:100B7000206AA26A0843E16A120211430843216B0A
:100B80000843616B0843E968304A11400843E86054
:100B900028683043286000E045E0E8680121090743
:100BA0000843E860FFF7F2FB044604E0FFF7EEFBC2
:100BB000001B022808D828688001F7D535E0FFF728
:100BC000E5FB001B022801D90320F8BD286880013D
:100BD000F5D4E8681E490840E86026E00128F4D012
:100BE000E868226A8107890F91421CD17021626AEC
:100BF0000140914217D17F21A26A090201401202ED
:100C0000914210D11F214904E26A014091420AD168
:100C100007214906226B0140914204D1400F616BCC
:100C20004007884201D00120F8BD0020F8BD000037
:100C3000001002400024F400140000200C000020EA
:100C40004010024000700040881300008C80C111E9
:100C5000FCFFFEEE094910B5401E884201D9012073
:100C600010BD074C60610321081F00F0FBFE00204F
:100C7000A06107202061002010BD0000FFFFFF00E1
:100C800000E000E07047704770470000F0B5034691
:100C900020331A7F012A28D001221A7702225A779C
:100CA00004686268A568124FBC4205D116460F223F
:100CB000120596434A6832437026B2430E681643C3
:100CC00066600068B84206D001229207904202D0C6
:100CD000084A904204D18022896895432943816063
:100CE0000120587700201877F0BD0220F0BD0000E9
:100CF000002C01400004004070B5040005D02546DA
:100D00002035687F002802D006E0012070BD002059
:100D10002877204600F016F802206877211D206809
:100D200000F0EAFB012240342272AA77EA772270AF
:100D30006270A270E27022716271A271E2716A77D0
:100D4000002070BD08B500680121890788420FD1D5
:100D50000848C16B01221143C163C06B10400022DF
:100D6000009011460F20FFF779FB0F20FFF76AFB79
:100D700008BD000000100240014620314A7F012AD0
:100D800001D00120704702224A770168CB68012216
:100D90001343CB6000680B49884205D09107884215
:100DA00002D00949884207D18168084B19400629B9
:100DB00005D0DB1F994202D0016811430160002079
:100DC00070470000002C01400004004007000100B3
:100DD000F8B5054604462035287F0026012817D09F
:100DE00001272F7702206877226890682F4B1840E0
:100DF000FF231B02984390600868502838D00EDC0F
:100E000020284FD006DC00284CD010281ED149E005
:100E10000220F8BD302845D0402817D13AE060289C
:100E20002ED0702818D001221203801A0FD09042C1
:100E30000CD1CB684A688968206800F09FFB206865
:100E40008168012292031143816000E001266F77DF
:100E5000002028773046F8BDCB684A68896820684A
:100E600000F08CFB21688868772210438860EEE7E9
:100E7000CA684968206800F097FB5021206806E0A6
:100E8000CA684968206800F0A0FB6021206800F073
:100E900081FBDCE7CA684968206800F085FB4021D7
:100EA0002068F4E7226801461046F0E788FFCEFF8D
:100EB0007047000070B50446006801690025C94309
:100EC0008907002915DBC168C943890711D4E91EC8
:100ED000016101202077206880698007204602D0C8
:100EE000FFF7E6FF04E000F0A7F8204600F0A5F8C1
:100EF000257720680169C943490717D4C168C943E8
:100F0000490713D40421C9430161022020772068D6
:100F100080698005800F204602D0FFF7C9FF04E0FA
:100F200000F08AF8204600F088F8257720680169EB
:100F3000C943090716D4C168C943090712D4082157
:100F4000C9430161042020772068C06980072046DA
:100F500002D0FFF7ADFF04E000F06EF8204600F08D
:100F60006CF8257720680169C943C90617D4C168A0
:100F7000C943C90613D41021C94301610820207751
:100F80002068C0698005800F204602D0FFF790FFDF
:100F900004E000F051F8204600F04FF82577206873
:100FA0000169C943C90708D1C168C943C90704D148
:100FB000891E0161204600F041F820680169C9439B
:100FC000090609D4C168C943090605D48021C9436B
:100FD00001612046FFF757FE20680169C943C90532
:100FE00008D4C168C943090604D4124901612046E6
:100FF000FFF748FE20680169C943490609D4C16862
:10100000C943490605D44021C9430161204600F087
:101010001FF820680169C943890609D4C168C9431A
:10102000890605D42021C94301612046FFF72CFE23
:1010300070BD0000FFFEFFFF70477047034908784E
:10104000002801D0401E08707047000000000020FA
:10105000704710B5014680310A78012A15D0012267
:101060000A7024224A6002681368146864086400E5
:101070001460012252079343002242660068036015
:10108000202048600A70104610BD022010BD70B5C7
:10109000044605468034207801281AD001202070AB
:1010A00024206060286806680268520852000260C6
:1010B0002868826807235B069A430A4382602846B1
:1010C00000F096FA286806602020606000202070FA
:1010D00070BD022070BD70B504460546803420788E
:1010E000012819D00120207024206060286806683B
:1010F000026852085200026028688268D200D20852
:101100000A438260284600F073FA286806602020AF
:1011100060600020207070BD022070BD70B50400BA
:1011200005D0254680356868002802D006E00120F9
:1011300070BD00202870204600F026F8242068604A
:1011400020680168490849000160204600F00AFB58
:101150000128EDD0A06A002802D0204600F06AFAEB
:10116000206841680922D202914341602068816869
:101170002A229143816020680168012211430160A5
:10118000204600F0BDFA70BD10B586B004461421AB
:101190006846FEF7FCFF1149206888421CD11048C0
:1011A0000268012189030A43026000680840059033
:1011B0000B484038426B02210A434263406B019165
:1011C00008400590C02000900020029003900490F9
:1011D00069460448FFF726F806B010BD0038014004
:1011E0004010024000040050FFB506460446803619
:1011F000706883B00D46202860D1002D0CD0059872
:10120000002809D00120A1680003814207D120698C
:10121000002804D1E80702D0012007B0F0BD3078E3
:1012200001284BD0012030700020F0602120706038
:10123000FFF7ACF80190274640370598B88205982B
:10124000F8820120A1680003814202D120690028B0
:1012500004D0029500250020307015E00020029097
:10126000F9E700228021204600F082FB002818D1F7
:101270000298002817D02168007888620298401CE4
:101280000290F88A401EF882F88A019B002806988E
:101290000090E6D100224021204600F069FB0028A2
:1012A00008D00320B9E728882168C005C00D8862EE
:1012B000AD1CE6E7202070600020AEE70220ACE71E
:1012C000FEE70000F0B587B014216846FEF75FFF27
:1012D0002848426B02210A434263426B0A4005924E
:1012E000416B012529434163416B29400591426BC4
:1012F00004210A434263406B1F4F0840FF210590C1
:101300002A460C313846FFF73BF881263602052085
:10131000012231460007FFF733F801224021174828
:10132000FFF72EF8092000240090019569460295E8
:1013300003943846FEF776FFF01100900294694658
:10134000019503943846FEF76DFF05200294694627
:101350000007009601950394FEF764FF402000907B
:1013600002946946019503940448FEF75BFF07B0B9
:10137000F0BD0000001002400004005000080050C2
:1013800010B588B0002400940194012116480294FD
:1013900003940494059489070694016013498460BA
:1013A000416009210461C16080218161FFF7A4FCD3
:1013B000002801D0FEF72AFF0120000300906946B3
:1013C0000948FFF705FD002801D0FEF71FFF049430
:1013D00004A905480694FFF759FC002801D0FEF740
:1013E00015FF08B010BD00001C000020FFF9000030
:1013F00010B5184816490160E121490241600021F9
:101400008160C16001618161C16101620C22416240
:1014100042618162FFF782FE002801D0FEF7F6FEEE
:1014200000210C48FFF757FE002801D0FEF7EEFE22
:1014300000210848FFF72BFE002801D0FEF7E6FE4A
:101440000448FFF706FE002801D0FEF7DFFE10BDBE
:101450000038014068000020FEE77047704710B573
:10146000FEF79AFF10BD30B59DB038216846FEF7F3
:101470008EFE0025189519951A9528210EA81B9502
:10148000FEF785FE01204002FEF7ECFF0224E0019A
:10149000039000944020059008200A9080030B9050
:1014A000079400020C900894000104950D90099592
:1014B0006846FFF7DBF9002811D1072018A931C1D0
:1014C000022118A81B95FFF7CBF8002807D10120AF
:1014D0000E900F950EA8FEF7EBFF002801D0FEF747
:1014E00095FE1DB030BD704710B50248FFF7E2FC15
:1014F00010BD00001C000020F0B502681A4B01244A
:10150000A4071A4D984203D0A04201D0A84203D1AB
:101510007026B2434E683243154E164F98420AD099
:10152000A04208D0A84206D0134CA04203D0B0423B
:1015300001D0B84204D103242402A243CC68224340
:101540008024A2434C69224302608A68C2620A680E
:101550008262984203D0B04201D0B84201D10969F9
:10156000016301214161F0BD002C014000040040F5
:1015700000440140004801400020004030B584682C
:10158000FF252D021B021343AC430B43234383600F
:1015900030BD00008268034B1A400A4307210A430A
:1015A000826070478FFFCFFF30B5036A046A64081A
:1015B000640004628469F025AC43120122430A24CA
:1015C000A3430B438261036230BD30B5036A10242C
:1015D000A34303628469036A0F252D031203AC43FE
:1015E0002243A024A343090119438261016230BD53
:1015F000F8B50446416E4034002915D00068816872
:10160000806809014D0F0A4E400F3746315C083F94
:10161000385CC000FEF76EFD6085785D715DC000CE
:10162000FEF768FD2085F8BD01206085FAE700001F
:10163000461D000810B5018DC90707D001684A682A
:1016400001235B049A43C36A1A434A60018D8907E8
:1016500007D501684A6801231B049A43036B1A43A8
:101660004A60018D490707D501684A6801239B0438
:101670009A43436B1A434A60018D090707D50168F5
:101680004A680123DB039A43836B1A434A60018D46
:10169000C90607D50268916801231B039943C36BF0
:1016A00019439160018D890607D501688A68012375
:1016B0005B039A43036C1A438A60018D490612D575
:1016C00003685A6801210905446C8A4322435A6021
:1016D000426C8A4207D10268516803235B05994333
:1016E000836C19435160018D090607D501684A686A
:1016F0000123DB04C06C9A4302434A6010BD000022
:10170000FEB50546002680350446EE60FEF73EFE37
:10171000019020680068124F000709D50121009749
:10172000002249052046019B00F022F900280DD136
:101730002068006840070BD5012100970022890529
:101740002046019B00F014F9002801D00320FEBDC3
:1017500020206860A860E6662E700020FEBD0000B4
:10176000FFFFFF01F8B50446016880682369E56959
:101770001843636900262B431843734A0B68734D63
:101780002B4003430B602068416803231B039943EC
:10179000E368194341602168A069914201D0236A3E
:1017A00018438B686A4D2B4003438B602068C16AE5
:1017B000636A090909011943C162664923686648D9
:1017C0008B420AD140698007800F09D001282CD0B4
:1017D000022828D0032816D113E060498B4201D19A
:1017E000002111E093420ED14169032080020140A3
:1017F0000AD001208002091A17D0091A13D0814299
:1018000001D1082100E010210120554D554FC003A2
:1018100093423DD100290AD0022911D0042909D0D0
:10182000082934D10BE00221EEE70421ECE7FEF7B2
:10183000C3FF01E0FEF7D4FF050001D179E00546C2
:10184000606A4000395A28460091FEF753FC6768E9
:1018500079007918814267D83903814264D3002323
:1018600028461946009AFEF75BFC020E09020302A5
:10187000780811431818002251413A460023FEF718
:101880004FFC03210902384A411A91424FD94BE0DB
:10189000E269824227D1002906D0022907D0042913
:1018A00007D0082940D108E0FEF786FF03E028466C
:1018B00003E0FEF795FF00283BD0616A4900795AA2
:1018C000FEF718FC616840004A088018FEF712FC19
:1018D0000146264A1039914226D8511C0140000782
:1018E000400F084323E0002906D0022907D004292D
:1018F00007D0082918D108E0FEF75EFF03E028466C
:1019000003E0FEF76DFF002813D0616A4900795AA1
:10191000FEF7F0FB61684A088018FEF7EBFB014612
:10192000124A1039914201D9012602E080B22168A1
:10193000C860204601214030418501850020206794
:1019400060673046F8BD000000800040F369FFCFBB
:10195000FFF4FF11003801404010024000440040F5
:101960000024F400261D0008FFFC0F00EFFF00001C
:10197000FFB581B005461746044680350A9E54E0FF
:10198000701C52D0FEF702FD0499401AB0422FD8C5
:10199000002E2DD020680168490746D5C069C04394
:1019A000000542D401202168C0020862EFF31080D4
:1019B000012181F3108821680B68FF22A132934333
:1019C0000B6080F31088EFF31080012181F3108801
:1019D00021688A68520852008A6080F310882020AB
:1019E0006860A860E86000202870032005B0F0BDA2
:1019F000EFF31080012181F3108821680A68FF232A
:101A0000A1339A430A6080F31088EFF3108001211C
:101A100081F3108821688A68520852008A6080F336
:101A2000108820206860A860DDE72068C1690298FE
:101A3000884304D00020B842A2D00020D6E701207D
:101A4000F9E700000FB410B503A9044B044A02984B
:101A500000F03AF810BC08BC04B01847951C000808
:101A6000180000208307FF22DB0E9A408907090E29
:101A70009940002808DB830809489B001B18186858
:101A800090430843186070470007000F0838830828
:101A900004489B001B18D86990430843D8617047DD
:101AA00000E400E000ED00E002E008C8121F08C1F9
:101AB000002AFAD170477047002001E001C1121FCF
:101AC000002AFBD170470000FFB58DB00F460546D8
:101AD000002606E025280AD0109A0F9990476D1C21
:101AE000761C28780028F5D1304611B0F0BD0024CE
:101AF0000121674A009400E004436D1C2B780846DE
:101B0000203B98401042F7D128782E2815D1042088
:101B1000044368786D1C2A280AD101CF6D1C0090FF
:101B20000BE000990A225143303940186D1C009097
:101B30002878014630390929F3D92878692843D013
:101B400006DC0028D0D063280BD0642804D13BE009
:101B500073280FD075284CD0109A0F999047761C97
:101B600094E03878694608720020487202A8019013
:101B7000012003E0386801900020C0433F1D610749
:101B80000CD5002400E0641C00998C420FDA8442DA
:101B9000F9DB0199095D0029F5D108E0002400E096
:101BA000641C8442FCDB0199095D0029F8D13619D7
:101BB00007E0019801990078491C0191109A0F994A
:101BC0009047641EF5D261E00A20019001CF002801
:101BD00002DA40422D2102E0210504D52B216A467C
:101BE0001172012103E0E10701D02021F7E70C91F8
:101BF00004E00A20019001CF00210C910BA90B9168
:101C000008E00199FEF776FA0A460B993032491E30
:101C10000B910A700028F4D10B9803A9081A203000
:101C20000190600701D5009801E001200090019922
:101C3000884203DD01460198081A00E000200024D4
:101C4000009006E002A8109A005D0F999047641C6E
:101C5000761C0C988442F5DB04E0109A30200F9932
:101C60009047761C0099481E00900029F5DC08E09A
:101C70000B980B990078491C0B91109A0F9990477B
:101C8000761C0199481E01900029F1DC6D1C28E7A3
:101C90000928010013B50023DB43012269460248ED
:101CA000FFF7A2FA00981CBD6800002010B5044898
:101CB00041684A1C426003A0FFF7C4FE10BD00004B
:101CC000000000204D43553A25640D0A0000000035
:101CD000FEF76AFBFFF7C7FBFFF7F4FAFFF788FB95
:101CE000FFF74EFB0548FFF747F8002801D0FEF745
:101CF0008DFA0349642000F005F8FAE71C00002083
:101D0000AD1C0008034A1378002B01D1107008475E
:101D100070470000000000204572726F725F4861DA
:101D20006E646C6572000100020004000600080089
:101D30000A000C001000200040008000000101019A
:101D4000010307010000080402040801010100006A
:101D50000000000000000000000000000000000083
:101D60000000000000000000000000000000000073
:101D70000100000002000000030000000400000059
:101D80000600000007000000080000000900000035
:101D90000000000000000000000000000000000043
:101DA0000100000002000000030000000400000029
:101DB000D01D0008000000201C000000A81A000828
:101DC000EC1D00081C000020DC040000B81A00080C
:101DD00000000000000000000100000004000000FE
:0C1DE000000000000024F40000000000DF
:04000005080000C12E
:00000001FF
