:020000040800F2
:1000000020060020D900000825230008B71D00089D
:1000100000000000000000000000000000000000E0
:100020000000000000000000000000008D2A000811
:100030000000000000000000272300088F2A0008AD
:10004000EB000008EB000008EB000008EB000008E4
:10005000EB000008EB000008EB000008310200088C
:1000600000000000EB000008EB000008EB000008B7
:10007000EB000008EB000008EB000008192B00085B
:10008000EB000008EB000008EB000008EB000008A4
:1000900000000000EB000008EB000008EB00000887
:1000A000EB000008EB000008EB000008EB00000884
:1000B00091360008EB00000800000000000000007E
:1000C0000448854600F0A2F800480047513C00086B
:1000D000C046C04620060020044880470448004728
:1000E000FEE7FEE7FEE7FEE7FEE7FEE7172B000868
:1000F000C100000830B50B46014600202022012433
:1001000009E00D46D5409D4205D31D469540491B4B
:100110002546954040191546521E002DF1DC30BD94
:10012000F0B51FB40646002082B005464024019178
:1001300000901BE0019922460F46304600F054F82B
:10014000049A059B801A994110D3104619462246FD
:1001500000F03AF8361A8F4101972246012000211B
:10016000009F00F031F838184D4100902046641E81
:100170000028DFDC019B00982946324607B0F0BD1D
:1001800003460B439B0703D009E008C9121F08C0B0
:10019000042AFAD203E00B780370401C491C521E5B
:1001A000F9D27047D2B201E00270401C491EFBD266
:1001B00070470022F6E710B513460A460446194672
:1001C000FFF7F0FF204610BD10B5202A04DB0146E2
:1001D000203A9140002010BD914020239C1A0346F4
:1001E000E3401943904010BD10B5202A04DB0846B7
:1001F000203AD040002110BD0B46D340D0402024EF
:10020000A21A91400843194610BD0000064C012572
:10021000064E05E0E36807CC2B430C3C98471034AE
:10022000B442F7D3FFF750FF1842000838420008E5
:1002300010B5102000F0FEF8FF20013000F0FAF8B1
:1002400010BD000072B6024902A003F029FAFAE7D5
:10025000F040000825730D0A000000001FB50C4691
:1002600000230222DB4303A901920293009102467C
:100270000123AA21034800F08BFA6946898921806D
:1002800004B010BD4400002003B583B00023022257
:1002900004A9DB4301920293009102460123AA21A3
:1002A000024800F01FFB05B000BD00004400002024
:1002B000F0B5002808D0014620314A79022A05D03D
:1002C0000422C263002008710120F0BD0268136897
:1002D0000E24A3431360426C1468FF2301339C4334
:1002E0001460026814686408640014600C4A55685D
:1002F000066C1C24264001242746B7403D43556028
:10030000826CC56C5560026D002A05D015689D434E
:100310001560826D406D42604C7100200871F0BD27
:1003200000000240F8B5002402462032517902292B
:1003300003D00421C16301242DE001680B680E2560
:10034000AB430B6001680B685B085B000B60416CA2
:100350000B68FF250135AB430B6010494D68066CF7
:100360001C231E4001231F46B7403D434D60816C56
:10037000C56C4D60016D002906D00E681D02AE43AC
:100380000E60416D856D4D60537100211171816B5F
:10039000002900D088472046F8BD00000000024038
:1003A00070B5044600F04AF90546601C02D00448C6
:1003B0000078241800F042F9401BA042FAD370BD27
:1003C0001000002010B5C11FF93905D0102809D040
:1003D00005A003F065F910BD0021084803F024FCD6
:1003E00007A0F6E70CA0F4E7556E6B6F776E20461A
:1003F000616C6C696E670D0A000000000F00002040
:1004000048414C4C5F4F55545F50696E2046616CBB
:100410006C696E670D0A00004655454C5F474155B3
:1004200047455F494E545F50696E20526973696E4B
:10043000670D0A0070B5084D0446E868204203D0F5
:10044000EC60204600F00AF82869204203D02C61B5
:100450002046FFF7B7FF70BD0018024010B5C11F5E
:10046000F93905D0102809D005A003F019F910BDFD
:100470000121074803F0D8FB06A0F6E70BA0F4E73C
:10048000556E6B6F776E20526973696E670D0A0047
:100490000F00002048414C4C5F4F55545F50696E2F
:1004A00020526973696E670D0A0000004655454C7D
:1004B0005F47415547455F494E545F50696E205232
:1004C0006973696E670D0A00F0B5002303249AE092
:1004D0002A4601259D402A407ED00E79B607B60FE8
:1004E000012E01D0022E16D186682746B4465E0042
:1004F000B646B7406646BE43B446CF687646B74078
:100500006646374387604668AE430D79ED06ED0FCA
:100510009D40354345600D79ED43AD0708D0C56872
:100520005F002646BE40B5438E68BE402E43C6607F
:100530000D79AD07AD0F022D0ED1DD08AD002D18E0
:10054000AC462D6A5E07F60E0F27B740BD430F6914
:10055000B7402F4365462F6205685F002646BE40C0
:10056000B5430E79B607B60FBE402E4306604D6800
:10057000AD03AD0F46D09E08264DB6007519AC46AA
:100580002D6E9E07F60E0F27B740BD4305273F0788
:10059000B84201D100270FE01F4FB84201D1012717
:1005A0000AE01E4FB84201D1022705E01C4FB842B5
:1005B00001D1032700E00527B7402F43154D6646BC
:1005C00037662D684E689543F60200D51543114FE6
:1005D0003D607D68954300E014E04E68B60200D5AA
:1005E00015437D600B4D80356E684F689643BF03A1
:1005F00000D516436E602E684F689643FF0300D502
:1006000016432E605B1C0A681546DA4000D05FE78F
:10061000F0BD000000180240000400500008005027
:10062000000C00500069084000D001207047002AEB
:1006300001D0816170478162704700000148806885
:10064000704700001000002070B502464032537819
:10065000202B1CD11378012B19D0012313702424D3
:100660005470046825689D432560046825681E034E
:10067000B5432560046825680D432560006801685E
:1006800019430160202050700020107070BD0220BE
:1006900070BD70B5024640325378202B1BD11378C1
:1006A000012B18D0012414702423537003681D6893
:1006B000A5431D6005682B680F263602B343090267
:1006C00019432960006801682143016020205070AF
:1006D0000020107070BD022070BD000070B50400D5
:1006E00006D02546403568780026002802D005E06F
:1006F000012070BD2E70204600F09AF92420687009
:10070000206801684908490001600F2160680906F6
:1007100088432168086121688A680120C0038243F8
:100720008A60E1680129A16808D021229202114360
:1007300022689160E168022902D005E00143F7E7F1
:1007400001212268C902516021684A680F4B1A438F
:100750004A602168CA688243CA60616920690843A7
:10076000A169090208432168C860216AE069084359
:1007700021680860206801680122114301606664F5
:10078000202068702663AE70002070BD00800002DB
:10079000FFB5054604464035687883B0202875D1FA
:1007A0000C98002814D00D98002811D02878012822
:1007B0006CD001202870FFF741FF0746012200900E
:1007C0001923D103204601F00BFC002874D103E06B
:1007D0000120400260646FE0222068704020A87011
:1007E000002666640C9860620D98608566630E98BA
:1007F0000090019704A90EC9204601F07BFB002858
:1008000001D02E7058E0618D3448FF2905D9FF22B0
:10081000228501231B06009006E0618D2185009052
:10082000208D0123C2B25B062046049901F0C2FB71
:1008300000970022042120460E9B01F0D1FB0028E6
:100840003AD12068406A616A0870606A401C606240
:10085000208D401E81B22185608D401E6085608D97
:1008600000281FD000291DD100970022802120469A
:100870000E9B01F0B5FB00281ED1608DFF2806D924
:10088000FF22228501231B06009607E024E0608DED
:1008900020850096208D0123C2B25B062046049974
:1008A00001F088FB608D0028C2D13A4620460E999F
:1008B00001F0BDFB002802D0012007B0F0BD206888
:1008C0002021C16120684268054B1A40426069706E
:1008D000AE702E700020F0E70220EEE700240080CA
:1008E00000E800FEFFB5054604464035687883B051
:1008F000202872D10C98002814D00D98002811D00F
:100900002878012869D001202870FFF797FE074654
:10091000012200901923D103204601F061FB002839
:1009200071D103E00120400260646CE02120687016
:100930004020A870002666640C9860620D9860855F
:1009400066630E980090019704A90EC9204601F035
:1009500001FB002801D02E7055E0608DFF2805D9DD
:10096000FF22228501231B06009606E0608D20856C
:100970000096208D0123C2B25B062046049901F047
:1009800019FB3A4620460E9901F077FB00283AD130
:10099000606A216800788862606A401C6062608DCD
:1009A000401E6085208D401E80B22085618D00290B
:1009B0001FD000281DD100970022802120460E9BC9
:1009C00001F00EFB00281ED1608DFF2806D9FF2202
:1009D000228501231B06009607E024E0608D208518
:1009E0000096208D0123C2B25B062046049901F0D7
:1009F000E1FA608D0028C4D13A4620460E9901F0F4
:100A000016FB002802D0012007B0F0BD206820218D
:100A1000C16120684268054B1A4042606970AE703F
:100A20002E700020F0E70220EEE7000000E800FE54
:100A300010B586B0044614216846FFF7BAFB124988
:100A4000206888421ED1114C616B01200143616313
:100A5000616B02900140059103210020C9020390BF
:100A6000009106201221049001910520694600079B
:100A7000FFF72AFDE16B012080050143E163E16B93
:100A80000140059106B010BD005800400010024022
:100A90000248816802788918816070471000002040
:100AA00010B5084800240168821511430160032035
:100AB00000F00AF8002801D0012401E000F028F835
:100AC000204610BD0020024070B50F4E0024317842
:100AD0000546002915D07D20C000FFF70BFB01461D
:100AE0000A480068FFF706FB00F030FC002808D138
:100AF000042D06D200222946401E00F02BF8756016
:100B000000E00124204670BD100000201C000020E1
:100B100008B50948016801221143016000681040CE
:100B2000009005484038C26B01040A43C263C06BA1
:100B30000840009008BD000040100240002805DB7E
:100B4000C106C90E012088400149086070470000B5
:100B500000E100E010B502F0B3FD10BD10B50F4C80
:100B6000216803225202914301432160C11FFF39D2
:100B7000FA390ED10A480621006848430949FFF7AF
:100B8000B9FA401C02E0002805D0401E6169490501
:100B9000F9D4002010BD032010BD000000700040FB
:100BA0001C00002040420F00F8B5044600680026F3
:100BB000664D800358D5654800274038C06BC0009B
:100BC00009D462484038C26B01040A43C263C06B57
:100BD0000840012700905E480168821511430160BA
:100BE000FFF72CFD009005E0FFF728FD0099401A63
:100BF000022825D856480068C005F5D5E8690321C4
:100C0000090208400FD0616A81420CD0E8690321D3
:100C10000902EA698843012109040A43EA61EA6991
:100C20008A43EA61E861C0070FD0FFF707FD009033
:100C300008E0FFF703FD0099411A4648814201D9B7
:100C4000032609E0E8698007F3D5E8690321090272
:100C50008843616A0843E861002F05D03B4840386B
:100C6000C26B01048A43C2632078C00705D068695B
:100C7000616880088000084368612078C00606D556
:100C80006869032189028843A16808436861208854
:100C9000800506D568690321890488436169084392
:100CA00068612088400506D56869032109058843E5
:100CB000A169084368612078800606D56869032128
:100CC00009038843E168084368612088400411D51E
:100CD0006869E16980008008084368610121E06972
:100CE0008907884206D119484038C1680122120498
:100CF0001143C1602068800210D56869012189050F
:100D0000226A884310436861206A884206D10F48EE
:100D10004038C168012212061143C16020880005D5
:100D200012D56869032189038843216908436861F2
:100D3000012120698903884206D104484038C168EE
:100D4000012212041143C1603046F8BD4010024038
:100D50000070004088130000F8B50F46060043D02D
:100D60004D4D28684007400FB84213D22868C0088C
:100D7000C00038432860FFF761FC044605E0FFF738
:100D80005DFC011B4548814261D828684007400F3F
:100D9000B842F4D13068424C81070DD5400704D5E4
:100DA000A068072109030843A060A0680F21090279
:100DB0008843B1680843A0603078C00732D07068BB
:100DC00001280AD002280BD000280FD03449403126
:100DD00003280ED0C969890704E02168890301E06E
:100DE00021688901002906DB0120F8BD2168490539
:100DF000F8E7096AEFE7A168C908C9000143A160E3
:100E0000FFF71CFC009006E0FFF718FC0099411A60
:100E1000224881421BD8A068382108407168C90067
:100E20008842F1D128684007400FB84217D91A48C4
:100E30000168C908C90039430160FFF7FFFB054697
:100E400007E0FFF7FBFB411B1448814201D9032057
:100E5000F8BD114800684007400FB842F1D1307822
:100E6000400706D5A068072109038843F1680843B5
:100E7000A06000F031F8A1683C2289091140094ABC
:100E8000515CC906C90EC840074908600748006898
:100E9000FFF71AFEF8BD0000002002408813000092
:100EA00000100240284100081C000020140000200F
:100EB0000648074900688968064A4904490F8900BD
:100EC000515CC906C90EC840704700001C000020D4
:100ED000001002406841000810B5204CA068204A6C
:100EE0008006400F16D0A0688006410F50100129DF
:100EF0000FD0A1688906490F022912D0A068800688
:100F0000400F042823D0A0688006400F032821D07A
:100F1000002010BD206801218004400F8140104650
:100F200012E0E1688B07E1689B0F4906490F491CF5
:100F3000032B00D01046FFF7DDF8E1684904490EA5
:100F40004843E168490F491CFFF7D4F810BD012060
:100F5000C00310BD7D20000210BD00000010024043
:100F60000024F400F8B504007ED020783827C007AC
:100F7000ED4D002846D0A868E96838408907890FF8
:100F8000102802D008280BD001E0032908D0012046
:100F90006268000482420AD129680143296015E091
:100FA000286880032ED560680028DDD02AE005235C
:100FB00001211B0489049A422A6802D10A432A604B
:100FC000EAE782432A60286888432860606800282E
:100FD0000CD0FFF733FB064604E0FFF72FFB801B26
:100FE000642873D828688003F7D50BE0FFF726FB49
:100FF000064604E0FFF722FB801B6428F1D828682E
:101000008003F7D42078800769D5A868E96838405C
:101010008A070721920FC902102802D0002813D096
:1010200001E0022A10D0E068002846D028688843F2
:101030002169084328602868FF210131084328609E
:10104000FFF7FCFA06462CE02A68520502D5E26852
:10105000002A89D06A687F231B029A4363691B02B6
:101060001A436A60002800E08DE00ED128688843AA
:10107000216908432860286801218004400F8140CD
:10108000AA48FFF737F8AA490860AA480068FFF79E
:101090001BFD002877D122E0FFF7D0FA801B022841
:1010A0009FD828684005F7D568687F2109028843E2
:1010B000616909020843686011E02968FF20013076
:1010C00081432960FFF7BAFA064605E098E0FFF78A
:1010D000B5FA801B022884D828684005F7D4207808
:1010E000954E00072ED5A8688006400F03280AD029
:1010F000A0690028306A16D0012108433062FFF74A
:101100009DFA07460BE0306A80071BD5A0690028CE
:101110009FD017E0FFF792FAC01B022870D8306A00
:101120008007F7D50EE0400840003062FFF786FAEE
:10113000074604E0FFF782FAC01B022860D8306A35
:101140008007F7D4207840076CD5A8680027800670
:10115000400F042818D0E86BC00008D4E96B0120C8
:1011600000070143E963E96B0140012700917348DF
:101170000168C90519D40168821511430160FFF7A0
:101180005DFA00900DE083E0F06980074AD5A06821
:1011900000287DD046E0FFF751FA0099401A022856
:1011A0002ED866480068C005F5D5A168012910D081
:1011B00004200529F16911D049084900F161F1695C
:1011C0008143F161A068002816D0FFF737FA00903C
:1011D0000EE0F06901210843F061F3E70143F1619A
:1011E000F7E7FFF72BFA0099411A5548814267D873
:1011F000F0698007F5D50EE0FFF720FA009007E0D0
:101200005EE0FFF71BFA0099411A4D48814257D81A
:10121000F0698007F5D4002F04D0E86B012109079D
:101220008843E863E06900287BD0A9688906490FF4
:1012300002294FD0012636060228286805D0B0437F
:101240002860FFF7FBF904463CE0B0432860FFF755
:10125000F5F9074604E0FFF7F1F9C01B02282FD883
:1012600028688001F7D4616A206AA26A0843E16AAB
:10127000120211430843216B0843616B0843E9687C
:10128000304A11400843E86028683043286000E095
:1012900045E0E868012109070843E860FFF7CEF957
:1012A000044604E0FFF7CAF9001B022808D82868A2
:1012B0008001F7D535E0FFF7C1F9001B022801D9FD
:1012C0000320F8BD28688001F5D4E8681E4908406D
:1012D000E86026E00128F4D0E868226A8107890FD7
:1012E00091421CD17021626A0140914217D17F2145
:1012F000A26A090201401202914210D11F21490441
:10130000E26A014091420AD107214906226B01405D
:10131000914204D1400F616B4007884201D0012007
:10132000F8BD0020F8BD0000001002400024F400C9
:101330001C000020140000204010024000700040FB
:10134000881300008C80C111FCFFFEEE094910B526
:10135000401E884201D9012010BD074C6061032165
:10136000081F02F0ADF90020A061072020610020D5
:1013700010BD0000FFFFFF0000E000E07047704775
:1013800070470000F0B5034620331A7F012A28D0A9
:1013900001221A7702225A7704686268A568124F00
:1013A000BC4205D116460F22120596434A683243C5
:1013B0007026B2430E68164366600068B84206D0D5
:1013C00001229207904202D0084A904204D1802222
:1013D0008968954329438160012058770020187758
:1013E000F0BD0220F0BD0000002C014000040040D0
:1013F00070B5040005D025462035687F002802D04E
:1014000006E0012070BD00202877204600F016F885
:1014100002206877211D206801F086FB01224034FC
:101420002272AA77EA7722706270A270E27022714B
:101430006271A271E2716A77002070BD08B5006820
:101440000121890788420FD10848C16B012211434D
:10145000C163C06B10400022009011460F20FFF7BF
:1014600079FB0F20FFF76AFB08BD00000010024067
:10147000014620314A7F012A01D001207047022213
:101480004A770168CB6801221343CB6000680B499F
:10149000884205D09107884202D00949884207D185
:1014A0008168084B1940062905D0DB1F994202D0FC
:1014B000016811430160002070470000002C0140CA
:1014C0000004004007000100F8B505460446203539
:1014D000287F0026012817D001272F770220687760
:1014E000226890682F4B1840FF231B02984390609E
:1014F0000868502838D00EDC20284FD006DC0028A1
:101500004CD010281ED149E00220F8BD302845D02B
:10151000402817D13AE060282ED0702818D0012238
:101520001203801A0FD090420CD1CB684A688968A8
:10153000206801F03BFB206881680122920311437F
:10154000816000E001266F77002028773046F8BDE3
:10155000CB684A688968206801F028FB21688868A0
:10156000772210438860EEE7CA684968206801F076
:1015700033FB5021206806E0CA684968206801F002
:101580003CFB6021206801F01DFBDCE7CA6849686C
:10159000206801F021FB40212068F4E72268014621
:1015A0001046F0E788FFCEFF7047000070B5044694
:1015B000006801690025C9438907002915DBC16856
:1015C000C943890711D4E91E0161012020772068F1
:1015D00080698007204602D0FFF7E6FF04E000F0B4
:1015E000A7F8204600F0A5F8257720680169C943CF
:1015F000490717D4C168C943490713D40421C94313
:10160000016102202077206880698005800F2046D4
:1016100002D0FFF7C9FF04E000F08AF8204600F08E
:1016200088F8257720680169C943090716D4C1687D
:10163000C943090712D40821C94301610420207756
:101640002068C0698007204602D0FFF7ADFF04E0A4
:1016500000F06EF8204600F06CF8257720680169EC
:10166000C943C90617D4C168C943C90613D4102198
:10167000C9430161082020772068C0698005800F78
:10168000204602D0FFF790FF04E000F051F820461A
:1016900000F04FF8257720680169C943C90708D1D0
:1016A000C168C943C90704D1891E0161204600F001
:1016B00041F820680169C943090609D4C168C943D2
:1016C000090605D48021C94301612046FFF757FE72
:1016D00020680169C943C90508D4C168C94309061E
:1016E00004D4124901612046FFF748FE20680169D1
:1016F000C943490609D4C168C943490605D44021F4
:10170000C9430161204600F01FF820680169C94300
:10171000890609D4C168C943890605D42021C94373
:1017200001612046FFF72CFE70BD0000FFFEFFFFA9
:101730007047704703490878002801D0401E0870A0
:101740007047000000000020704710B5014680314E
:101750000A78012A15D001220A7024224A60026800
:1017600013681468640864001460012252079343EC
:101770000022426600680360202048600A7010461C
:1017800010BD022010BD7047704770B50446054675
:101790008034207801281AD0012020702420606035
:1017A0002868066802685208520002602868826849
:1017B00007235B069A430A438260284601F030FA09
:1017C00028680660202060600020207070BD022024
:1017D00070BD70B50446054680342078012819D0C4
:1017E0000120207024206060286806680268520882
:1017F0005200026028688268D200D2080A438260E0
:10180000284601F00DFA286806602020606000205C
:10181000207070BD022070BD704770477047000097
:10182000F8B503680446D96918689A68B24D0E463F
:101830002E4025468035002E75D0B04EB04F164054
:10184000074037436ED0CF0706D0C70504D5012720
:101850001F62EB683B43EB608B0708D5D30706D0CC
:10186000276802233B62EB6804273B43EB604B078E
:1018700008D5D30706D0276804233B62EB6802270C
:101880003B43EB600B0709D520230340334305D0CE
:10189000266808233362EE681E43EE600B0509D507
:1018A000430107D501232668DB023362EB6820265B
:1018B0003343EB60EB68002B42D089060AD5202128
:1018C0000840C9050A40104304D0216F002901D007
:1018D00020468847E86821688968490602D428219B
:1018E000084232D0204601F05FFA2168886840063D
:1018F00027D5EFF31080012282F310888B684022F5
:1019000093438B6080F31088E06F002819D07D49E5
:101910008163E06FFEF706FD002811D0E06F816B58
:101920000DE000E017E08E0615D5012720263F07C1
:10193000064017403E430ED0216FB1E02046884755
:10194000F8BD2046FFF76AFFF8BD2046FFF766FFA7
:101950000020E860F8BDE66E012E7CD1CE067AD577
:10196000C60678D510221A62236898682646400673
:101970004036002847DAE16F086840680004000C30
:10198000E8D0B78B8742E5D9F08308680068800605
:1019900034D4EFF31080012181F310881968170106
:1019A000B943196080F31088EFF31080012181F3AF
:1019B000108821688B685B085B008B6080F310885F
:1019C000EFF31080012181F3108821688B68402794
:1019D000BB438B6080F310882020A8600020E06665
:1019E000EFF31080012181F3108821680B68934385
:1019F0000B6080F31088E06FFEF75AFCB08BF18B20
:101A0000401A81B233E0B08BF18B401A81B2F08B77
:101A100000289FD000299DD0EFF31080012686F387
:101A200010881E68FF272137BE431E6080F3108890
:101A3000EFF31080012383F3108823689E682F4FF3
:101A4000FF433E409E6080F310882020A860002065
:101A5000E066206700E00EE0EFF31080012383F3DF
:101A6000108823681D6895431D6080F31088204608
:101A7000FFF789FEF8BDCE0208D5560206D5012033
:101A8000000518622046FFF7C8FEF8BD0E060BD50C
:101A900001278026FF0506403A40164304D0616FB7
:101AA000002900D04AE7F8BD4A0614D5420612D5EF
:101AB0002046EFF31081012282F310881C68402237
:101AC00094431C6081F310882021696000214167E4
:101AD00000F070F9F8BD0A0205D5420003D5204692
:101AE000FFF79AFEF8BDC901FCD50028FADA2046B6
:101AF000FFF74AFEF8BD00000F08000001000010CB
:101B000020010004952D000870B5040005D025467D
:101B100080356868002802D006E0012070BD0020F2
:101B20002870204600F026F82420686020680168AC
:101B3000490849000160204601F0A0FB0128EDD0D2
:101B4000A06A002802D0204601F08CF82068416885
:101B50000922D20291434160206881682A22914380
:101B6000816020680168012211430160204601F074
:101B7000DFF870BD30B587B0044614216846FEF723
:101B800018FB2368214C002221480221A34219D1CD
:101B90001F4B40331D684C0325431D601B682340C9
:101BA0000593436B0B434363406B6B4608400590C2
:101BB000C02007C30392694616480492FEF784FCCE
:101BC00007B030BD144CA342FAD1C46B01235B04AF
:101BD0001C43C463C46B1C400594446B01231C4329
:101BE0004463406B6C46184005900C200BC40520E4
:101BF0000CC469460007FEF767FC002211461C2052
:101C0000FEF7A8FF1C20FEF799FFD9E70038014036
:101C100000100240000400500044004070B503462C
:101C200080339C68202C2CD100290BD0002A09D0AD
:101C3000012584682D03AC4206D10469002C03D130
:101C4000CC0701D0012070BD1C78012C19D00124D3
:101C50001C700023C3660C4B04689C420ED0636862
:101C60001B020BD5EFF31083012585F3108825683F
:101C70000126B6063543256083F3108801F004FC85
:101C800070BD022070BD00000080004010B50068EB
:101C90000D49884216D10D4C0D4822780078611C00
:101CA00050542078401CC0B22070102804D909A0DC
:101CB00001F0F6FC0020207004480122044990380D
:101CC000FFF7ACFF10BD000000440040FC01002005
:101CD0000C0000203E2A3C0D0A000000FFB506461D
:101CE00004468036706883B00D46202860D1002DF0
:101CF0000CD00598002809D00120A168000381427A
:101D000007D12069002804D1E80702D0012007B0DC
:101D1000F0BD307801284BD0012030700020F060F9
:101D200021207060FEF78AFC019027464037059815
:101D3000B8820598F8820120A1680003814202D18F
:101D40002069002804D0029500250020307015E09D
:101D500000200290F9E700228021204601F02EFCAD
:101D6000002818D10298002817D0216800788862CE
:101D70000298401C0290F88A401EF882F88A019B63
:101D8000002806980090E6D100224021204601F06C
:101D900015FC002808D00320B9E728882168C00571
:101DA000C00D8862AD1CE6E7202070600020AEE721
:101DB0000220ACE77047FEE701688A69D2439207C8
:101DC00001D400228A6200688169C943C90703D02F
:101DD000816901221143816170470000F7B5044613
:101DE000006882B0816900262546C906403537461D
:101DF0000092002949DA1021C16136E00398401CA5
:101E000033D0FEF71BFC0099411A0398814201D898
:101E100000282AD121684A6801208003AB7802405B
:101E20009C468B69DB431B041AD4824218D062465D
:101E3000202A15D04A6802434A60FEF7FFFB009053
:101E40000EE0FEF7FBFB0099401A192808D9616CD7
:101E500020200143616468700020A870287001266A
:101E600020688069C0438006EBD420688069C04345
:101E7000800602D5002EC1D004E0002E02D12168D8
:101E80002020C86104200743012621688869C20513
:101E900004D5012217431202CA610126410508D563
:101EA00008210F432268C901D1610126800502D4AF
:101EB0000AE0800506D50220074321680002C861B8
:101EC000012601E0002E0FD02046FFF775FF2068A5
:101ED0004168074A11404160606C384360642020CB
:101EE00068700020A8702870304605B0F0BD000072
:101EF00000E800FEF8B50446164615481D46DAB25D
:101F00000090079F0023204600F054F83A462046F0
:101F1000069900F0B2F8002818D12846F5B2012839
:101F200009D02168300A88623A462046069900F0B6
:101F3000A4F800280AD12068856200970022402179
:101F40002046069B00F04CF8002800D00120F8BD88
:101F500000200080F8B50446164615481D46DAB242
:101F6000C3020090079F204600F024F83A4620461E
:101F7000069900F082F8002818D12846F5B2012809
:101F800009D02168300A88623A462046069900F056
:101F900074F800280AD12068856200970022802109
:101FA0002046069B00F01CF8002800D00120F8BD58
:101FB00000200080890510B5890D12041143029C90
:101FC000194302682143490050684908630D034CD6
:101FD000234398430843506010BD0000FF63FF0394
:101FE000F8B51D4617460E46044609E0681C07D0A2
:101FF000FEF724FB0699401AA8420BD8002D09D001
:1020000020688169304688430FD00020B842EDD067
:102010000020F8BD616C2020014361644034607091
:102020000020A07020700120F8BD0120EEE770B5FF
:1020300016460D4604460FE0324629462046FFF775
:10204000CDFE002801D0012070BDFEF7F7FA801BFD
:10205000A84208D8002D06D020688069C0438006B9
:10206000EAD4002070BD616C2020014361644034DB
:1020700060700020A0702070E5E770B516460D4630
:10208000044611E0324629462046FFF7A7FE002805
:1020900001D0012070BD681C06D0FEF7CFFA801B6E
:1020A000A84208D8002D06D020688069C043800768
:1020B000E8D4002070BD616C20200143616440348D
:1020C00060700020A0702070E3E70000F0B587B0DA
:1020D00014216846FEF76DF83448416B0125294309
:1020E0004163416B29400591426B02210A434263DF
:1020F000426B0A400592426B04210A434263406BE3
:102100000122084005902B212948FEF790FA8126EC
:10211000052736023F07012231463846FEF787FA87
:10212000012240212348FEF782FA09200024009072
:1021300001956946029503941D48FEF7C5F92220D2
:10214000009002946946019503941948FEF7BCF982
:10215000029469463846009601950394FEF7B4F957
:102160004020009002946946019503941148FEF7BF
:10217000ABF910203126360400906946019602958D
:102180000B48FEF7A1F928020090694601960294D7
:102190000748FEF799F9002211460720FEF7DAFCFE
:1021A0000720FEF7CBFC07B0F0BD00000010024096
:1021B000000400500008005010B513481149016098
:1021C0001249416000218160016141618161012208
:1021D000C161C2600162FEF781FA002801D0FEF7FA
:1021E00031F800210848FEF72FFA002801D0FEF749
:1021F00029F800210448FEF74CFA002801D0FEF728
:1022000021F810BD0058004044000020BC7D701033
:1022100010B588B00024009401940121164802945E
:10222000039404940594890706940160134984601B
:10223000416009210461C16080218161FFF7D8F804
:10224000002801D0FDF7FEFF012000030090694641
:102250000948FFF739F9002801D0FDF7F3FF04948E
:1022600004A905480694FFF78DF8002801D0FDF772
:10227000E9FF08B010BD000090000020FFF9000049
:1022800010B5184816490160E1214902416000215A
:102290008160C16001618161C16101620C224162A2
:1022A00042618162FFF730FC002801D0FDF7CAFFD0
:1022B00000210C48FFF78DFA002801D0FDF7C2FF7E
:1022C00000210848FFF761FA002801D0FDF7BAFFA6
:1022D0000448FFF73AFA002801D0FDF7B3FF10BD1C
:1022E00000380140DC00002010B50D480B490160AA
:1022F000E1214902416000218160C1600161816189
:10230000C16101620C22416242618162FFF7FCFB04
:10231000002801D0FDF796FF10BD000000440040EA
:102320006C010020FEE77047F0B5DDB01D25B0223E
:10233000FE4931A8FDF724FFFC49A022B03105A8D1
:10234000FDF71EFF00206946088020A9F84E888608
:1023500004463088641C81B2A4B20020FDF794FFCB
:10236000002824D10120FEF71BF83068010C002062
:10237000FDF78AFF00281AD100211E20FDF784FFF7
:102380000120FEF70DF82DA93020FDF767FF20A8EA
:10239000808EC0070BD0E7A001F082F96946362095
:1023A000FDF75CFF6846808A132808D05DE0052CA5
:1023B00001D9E6A091E10A20FDF7F2FFC9E7032069
:1023C00003900026CB2000023418A1B23E20FDF776
:1023D0005BFFA1B23E20FDF757FF0120FDF7E0FFB4
:1023E0000024F7003819410005A8415A6000403028
:1023F000C0B2FDF749FF0120FDF7D2FF641CA4B273
:10240000082CEFD3761CB6B2092EDBD3D54C3E2078
:102410002146FDF739FF21463E20FDF735FF01201B
:10242000FDF7BEFF002405AE600081198031403009
:10243000098AC0B2FDF728FF0120FDF7B1FF641C37
:10244000A4B2052CF0D300211E20FDF71DFF0A20A9
:10245000FDF7A6FF69460C20FDF700FF68460088DF
:1024600000057CD5C0A001F01BF9C64C3E202146DA
:10247000FDF70AFF21463E20FDF706FF0120FDF78C
:102480008FFF64214020FDF7FFFE0120FDF788FF4C
:10249000BD4C42202146FDF7F7FE0120FDF780FFED
:1024A00064214420FDF7F0FE0120FDF779FF21466D
:1024B0004620FDF7E9FE0120FDF772FFFF214820CD
:1024C000FDF7E2FE0120FDF76BFF232149024A20C0
:1024D000FDF7DAFE00211E20FDF7D6FE0120FDF7F4
:1024E0005FFFA84C3E20641E2146FDF7CDFE21462D
:1024F0003E20FDF7C9FE0120FDF752FF83210902AE
:102500004020FDF7C1FE00211E20FDF7BDFE012089
:10251000FDF746FF661E31463E20FDF7B5FE31460B
:102520003E20FDF7B1FE0120FDF73AFFE921C90188
:102530004020FDF7A9FE0120FDF732FF4021422097
:10254000FDF7A2FE0120FDF72BFF90494420FDF787
:102550009BFE0120FDF724FF8D49462000E0B4E0FA
:10256000FDF792FE0120FDF71BFF8A494820FDF789
:102570008BFE00211E20FDF787FE0120FDF710FFD6
:1025800031463E20FDF780FE31463E20FDF77CFEC1
:102590000120FDF705FF80494C20FDF775FE002165
:1025A0001E20FDF771FE0120FDF7FAFEFF208F309F
:1025B00069460880E61C31463E20FDF765FE31463F
:1025C0003E20FDF761FE0120FDF7EAFE694609881D
:1025D0004420FDF759FE0120FDF7E2FE6F49462039
:1025E000FDF752FE0120FDF7DBFE6D494A20FDF7A5
:1025F0004BFE00211E20FDF747FE0120FDF7D0FE17
:1026000021463E20FDF740FE21463E20FDF73CFEE0
:102610000120FDF7C5FE86214A20FDF735FE012089
:10262000FDF7BEFE86214C20FDF72EFE00211E2068
:10263000FDF72AFE0120FDF7B3FE002431AE06208F
:10264000274647434F48F15BC01E081881B23E2021
:10265000FDF71AFE4B48F15BC01E081881B23E2000
:10266000FDF712FE0120FDF79BFEB81981888078E6
:10267000FDF70AFE0120FDF793FE641CA4B2AC42F4
:10268000DDD300211E20FDF7FFFD3E4C3E20523CD5
:102690002146FDF7F9FD21463E20FDF7F5FD052019
:1026A000FDF77EFE69464020FDF7D8FD68460188AB
:1026B000E920C001814212D169464220FDF7CEFDDA
:1026C000684600884028F6D10AE00398401E0004BE
:1026D000000C039000D074E632A000F0E1FF18E196
:1026E00069464420FDF7BAFD6846018827488142C3
:1026F000F5D169464620FDF7B1FD684601882448BA
:102700008142ECD169464820FDF7A8FD6846018862
:1027100020488142E3D169464C20FDF79FFD684681
:1027200001881D4881427DD1164C49E0A03F000838
:10273000080000205254393432365F556E7365619B
:102740006C5F506173730D0A0000000052543934FD
:1027500032365F556E7365616C5F4661696C0D0A58
:102760000000000009CB00005254393432365F4F6C
:1027700043565F53657474696E675F506173730D80
:102780000A000000536500005F0B0000FB3E0000E4
:10279000012000007F060000120200000541000039
:1027A000661200005254393432365F4F43565F533D
:1027B000657474696E675F4661696C0D0A0000009C
:1027C000513C21463E20FDF75FFD21463E20FDF7AE
:1027D0005BFD0520FDF7E4FD69464A20FDF73EFD5F
:1027E0006846008886281DD169464C20FDF736FDD5
:1027F00068460088862815D1641C21463E20FDF7D6
:1028000043FD21463E20FDF73FFD0520FDF7C8FDB5
:1028100069464020FDF722FD68460088642878D18B
:10282000694600E075E04220FDF718FD6846008823
:10283000534CA0426DD169464420FDF70FFD684618
:102840000088642865D169464620FDF707FD684683
:102850000088A0425DD169464820FDF7FFFC68462C
:102860000088FF2855D169464A20FDF7F7FC6846E5
:1028700001882320400281424BD1424C3E20214618
:10288000FDF702FD21463E20FDF7FEFC0520FDF789
:1028900087FD69464420FDF7E1FC6846018808464B
:1028A000FF388F3835D169464620FDF7D7FC68469A
:1028B0000188354881422CD169464A20FDF7CEFC7B
:1028C000684601883148814223D1002D29D0002457
:1028D00025E0062027464743F15B652000020818E3
:1028E00081B23E20FDF7D0FCF15B652000020818A4
:1028F00081B23E20FDF7C8FC0520FDF751FDBF1950
:10290000B8786946FDF7AAFC6946B8880988884204
:1029100003D00020C0435DB0F0BD641CA4B2AC4243
:10292000D7D3012189030020FDF7AEFC00211E2032
:10293000FDF7AAFC0520FDF733FD69463020FDF7C1
:102940008DFC68460188FF20013081436846018084
:102950003020FDF799FC00211E20FDF795FC012099
:10296000FDF71EFD20210020FDF78EFC00211E201A
:10297000FDF78AFC0520FDF713FD0020CBE70000E2
:102980005F0B0000056500000541000066120000B5
:10299000F8B5002468460480264669463020FDF7D5
:1029A0005DFC6846018830A000F07AFE6846008829
:1029B000C00511D50520FDF7F3FC69463020FDF771
:1029C0004DFC6846018828A000F06AFE6846008831
:1029D000C00501D501F0C4F92B4D6000641CE4B2C0
:1029E0002E52102CF9D3A91C0820FDF737FC291D05
:1029F0000420FDF733FCA91D0620FDF72FFC22491A
:102A000028200831FDF72AFC1F492C200A31FDF748
:102A100025FC1D4910200C31FDF720FC1A492E2001
:102A20000E31FDF71BFC18493C201031FDF716FC58
:102A3000154912201231FDF711FC13490A201431F7
:102A4000FDF70CFC10490C201631FDF707FC0E4970
:102A500030201831FDF702FC0B4936201A31FDF702
:102A6000FDFB01F01DFAF8BD0A205254393432360C
:102A70005F5245475F464C414733203D2025303467
:102A8000780D0D0A0000000024000020704710B5EA
:102A9000FDF7FEFF10BD30B59DB038216846FDF74B
:102AA00088FB0025189519951A9528210EA81B95C5
:102AB000FDF77FFB01204002FEF750F80224E00101
:102AC000039000944020059008200A9080030B900A
:102AD000079400020C900894000104950D9009954C
:102AE0006846FEF73FFA002811D1072018A931C126
:102AF000022118A81B95FEF72FF9002807D1012005
:102B00000E900F950EA8FEF74FF8002801D0FDF7A4
:102B100099FB1DB030BD704710B50248FEF746FD69
:102B200010BD000090000020F0B502681A4B01248F
:102B3000A4071A4D984203D0A04201D0A84203D165
:102B40007026B2434E683243154E164F98420AD053
:102B5000A04208D0A84206D0134CA04203D0B042F5
:102B600001D0B84204D103242402A243CC682243FA
:102B70008024A2434C69224302608A68C2620A68C8
:102B80008262984203D0B04201D0B84201D10969B3
:102B9000016301214161F0BD002C014000040040AF
:102BA00000440140004801400020004030B58468E6
:102BB000FF252D021B021343AC430B4323438360C9
:102BC00030BD00008268034B1A400A4307210A43C4
:102BD000826070478FFFCFFF30B5036A046A6408D4
:102BE000640004628469F025AC43120122430A2484
:102BF000A3430B438261036230BD30B5036A1024E6
:102C0000A34303628469036A0F252D031203AC43B7
:102C10002243A024A343090119438261016230BD0C
:102C2000F8B50446416E4034002915D0006881682B
:102C3000806809014D0F0A4E400F3746315C083F4E
:102C4000385CC000FDF756FA6085785D715DC000A4
:102C5000FDF750FA2085F8BD01206085FAE70000F5
:102C60001E41000810B5018DC90707D001684A68E8
:102C700001235B049A43C36A1A434A60018D8907A2
:102C800007D501684A6801231B049A43036B1A4362
:102C90004A60018D490707D501684A6801239B04F2
:102CA0009A43436B1A434A60018D090707D50168AF
:102CB0004A680123DB039A43836B1A434A60018D00
:102CC000C90607D50268916801231B039943C36BAA
:102CD00019439160018D890607D501688A6801232F
:102CE0005B039A43036C1A438A60018D490612D52F
:102CF00003685A6801210905446C8A4322435A60DB
:102D0000426C8A4207D10268516803235B059943EC
:102D1000836C19435160018D090607D501684A6823
:102D20000123DB04C06C9A4302434A6010BD0000DB
:102D3000FEB50546002680350446EE60FDF77EFCB4
:102D4000019020680068124F000709D50121009703
:102D5000002249052046019B00F030FC00280DD1DF
:102D60002068006840070BD50121009700228905E3
:102D70002046019B00F022FC002801D00320FEBD6C
:102D800020206860A860E6662E700020FEBD00006E
:102D9000FFFFFF0110B5806A002201464031CA835F
:102DA000CA82FEF73BFD10BD10B5EFF31081012282
:102DB00082F3108802681368FF242134A343136050
:102DC00081F31088EFF31081012282F310880268EA
:102DD00093680D4C2340936081F31088C16E0129E4
:102DE0000BD1EFF31081012282F31088026813687F
:102DF0001024A343136081F31088202288210A50F5
:102E00000021C166016710BDFEFFFFEF70B50146EE
:102E10004031034680330C8C9D680268222D04D01B
:102E2000906908210843906170BD526A856D224007
:102E30002A80826D921C8265CA8B521ECA83CA8BFD
:102E4000002AF1D1EFF31082012484F31088046882
:102E50002568FF262136B543256082F31088EFF3FD
:102E60001082012484F310880468A5686D086D0041
:102E7000A56082F3108820229A6000220267C36E48
:102E8000012B02D0FEF702FF70BDC266EFF3108285
:102E9000012383F310880468256810239D4325606F
:102EA00082F310880268D469E443E40600D4136214
:102EB000898BFEF768FC70BDF0B5054604464035C9
:102EC00089B0288C02902168CE69086806908868CD
:102ED00004902046803000908068222805D08A69BE
:102EE000082002438A6109B0F0BD2F8D68E0206898
:102EF000406A029AA16D10400880A06D801CA065F8
:102F0000E88B401EE8832068C669710731D0F1075D
:102F100009D00699C90506D5012101620098C0684B
:102F200008430099C860B0070BD50498C00708D0C3
:102F30002168022008620098C068042108430099B3
:102F4000C86070070BD50498C00708D0216804201A
:102F500008620098C068022108430099C860009880
:102F6000C068002805D02046FEF758FC00990020D4
:102F7000C860E88B002823D1EFF31080012181F392
:102F8000108821680A68FF2301339A430A6080F39E
:102F90001088EFF31080012181F3108821688A687E
:102FA000264B1A408A6080F31088009820218160A7
:102FB00000202067E16E012928D02046FEF766FE3A
:102FC000002F01D0B00692D4E88B00288BD0298D39
:102FD000814288D9EFF31080012181F310882168A4
:102FE0008A6801231B079A438A6080F3108814487B
:102FF000EFF310812067012080F3108820680268B9
:1030000020231A43026081F310886CE7E066EFF337
:103010001080012181F310882268136810218B43EE
:10302000136080F310882068C269D243D20600D4AE
:103030000162A98B2046FEF7A6FBC1E7FEFFFFEF6A
:103040000D2E000870B501464031034680330C8CCC
:103050009D680268222D04D0906908210843906180
:1030600070BD526A2240846D2270826D521C82654E
:10307000CA8B521ECA83CA8B002AF1D1EFF3108289
:10308000012484F3108804682568FF262136B5439F
:10309000256082F31088EFF31082012484F31088F6
:1030A0000468A5686D086D00A56082F31088202271
:1030B0009A6000220267C36E012B02D0FEF7E6FD84
:1030C00070BDC266EFF31082012383F31088046899
:1030D000256810239D43256082F310880268D46917
:1030E000E443E40600D41362898BFEF74CFB70BD09
:1030F000F0B505460446403589B0288C019021681A
:10310000CE69086806908868049020468030029056
:103110008068222805D0886908221043886109B098
:10312000F0BD2F8D68E02068406A01990840A16DCC
:103130000870A06D401CA065E88B401EE8832068E5
:10314000C669710731D0F10709D00699C90506D5BE
:10315000012101620298C06808430299C860B00763
:103160000BD50498C00708D0216802200862029895
:10317000C068042108430299C86070070BD5049801
:10318000C00708D02168042008620298C0680221A4
:1031900008430299C8600298C068002805D02046FC
:1031A000FEF73CFB02990020C860E88B002823D181
:1031B000EFF31080012181F3108821680A68FF2352
:1031C00001339A430A6080F31088EFF310800121E5
:1031D00081F3108821688A68264B1A408A6080F340
:1031E000108802992020886000202067E16E012964
:1031F00028D02046FEF74AFD002F01D0B00692D419
:10320000E88B00288BD0298D814288D9EFF310807C
:10321000012181F3108821688A6801231B079A43E2
:103220008A6080F3108814482067EFF31080012132
:1032300081F3108821680B68202213430B6080F310
:1032400010886CE7E066EFF31080012181F31088AD
:103250002268136810218B43136080F31088206864
:10326000C269D243D20600D40162A98B2046FEF780
:103270008AFAC1E7FEFFFFEF45300008F8B50446C3
:10328000016880682369E5691843636900262B4358
:103290001843734A0B68734D2B4003430B6020683F
:1032A000416803231B039943E36819434160216884
:1032B000A069914201D0236A18438B686A4D2B4064
:1032C00003438B602068C16A636A090909011943D5
:1032D000C1626649236866488B420AD1406980070B
:1032E000800F09D001282CD0022828D0032816D11D
:1032F00013E060498B4201D1002111E093420ED1CD
:1033000041690320800201400AD001208002091A8D
:1033100017D0091A13D0814201D1082100E01021F1
:103320000120554D554FC00393423DD100290AD08D
:10333000022911D0042909D0082934D10BE0022137
:10334000EEE70421ECE7FDF7B3FD01E0FDF7C4FD76
:10335000050001D179E00546606A4000395A2846E7
:103360000091FCF7C7FE676879007918814267D839
:103370003903814264D3002328461946009AFCF79A
:10338000CFFE020E0902030278081143181800222A
:1033900051413A460023FCF7C3FE03210902384A93
:1033A000411A91424FD94BE0E269824227D100296C
:1033B00006D0022907D0042907D0082940D108E007
:1033C000FDF776FD03E0284603E0FDF785FD0028C4
:1033D0003BD0616A4900795AFCF78CFE6168400075
:1033E0004A088018FCF786FE0146264A10399142A9
:1033F00026D8511C01400007400F084323E0002954
:1034000006D0022907D0042907D0082918D108E0DE
:10341000FDF74EFD03E0284603E0FDF75DFD0028C3
:1034200013D0616A4900795AFCF764FE61684A0862
:103430008018FCF75FFE0146124A1039914201D90B
:10344000012602E080B22168C86020460121403098
:10345000418501850020206760673046F8BD000087
:1034600000800040F369FFCFFFF4FF1100380140F6
:1034700040100240004400400024F400FE400008D8
:10348000FFFC0F00EFFF0000F0B581650146403101
:103490008A83CA8300230367012584682D03FF26DE
:1034A000AC4204D10469002C13D13F4C0AE07F27C1
:1034B000002C09D001263607B4420CD10469002C37
:1034C00005D03F240C8407E00469002C01D00F8450
:1034D00002E00E8400E00B8404468034E360222680
:1034E000A660EFF31086B446012686F310880668BE
:1034F000B768B646012637437646B760664686F318
:1035000010880127466E7F07BE4229D1098D91425E
:1035100026D88168A94202D1016900291ED0234919
:1035200001672370016900290CD0EFF3108101229B
:1035300082F3108802681368FF2401342343136068
:1035400081F31088EFF31081012282F31088006864
:10355000826801231B071A43826021E01449DFE7D8
:103560008168A94202D1016900290FD01149016780
:10357000237001690029EFF3108109D0012282F341
:10358000108800680268FF23213307E00A49EEE74C
:10359000012282F310880068026820231A43026027
:1035A00081F310880020F0BDFF010000F130000819
:1035B000B92E0008453000080D2E0008FFB581B077
:1035C00005461746044680350A9E54E0701C52D0CA
:1035D000FDF734F80499401AB0422FD8002E2DD0B0
:1035E00020680168490746D5C069C043000542D438
:1035F00001202168C0020862EFF31080012181F3ED
:10360000108821680B68FF22A13293430B6080F37E
:103610001088EFF31080012181F3108821688A68F7
:10362000520852008A6080F3108820206860A860E9
:10363000E86000202870032005B0F0BDEFF3108093
:10364000012181F3108821680A68FF23A1339A437E
:103650000A6080F31088EFF31080012181F3108855
:1036600021688A68520852008A6080F310882020FE
:103670006860A860DDE72068C1690298884304D0CB
:103680000020B842A2D00020D6E70120F9E70000D0
:1036900010B50248FEF7C4F810BD00006C01002010
:1036A0000FB410B503A9044B044A029800F03AF88D
:1036B00010BC08BC04B01847993B0008200000204B
:1036C0008307FF22DB0E9A408907090E99400028E4
:1036D00008DB830809489B001B18186890430843BF
:1036E000186070470007000F0838830804489B00E3
:1036F0001B18D86990430843D861704700E400E084
:1037000000ED00E002E008C8121F08C1002AFAD14B
:1037100070477047002001E001C1121F002AFBD151
:1037200070470000FFB591B00F460546002606E041
:1037300025280AD0149A139990476D1C761C287876
:103740000028F5D1304615B0F0BD002400940121C9
:10375000F34A029400E004436D1C2B780846203B9A
:1037600098401042F7D128782A280ED002222878D3
:1037700001463039092915D800990A2359433039AF
:10378000401814436D1C0090F1E701CF0090002811
:1037900005DA0120400304430098404200900220D3
:1037A00004436D1C28782E2815D104200443687822
:1037B0006D1C2A280AD101CF6D1C02900BE00299E2
:1037C0000A225143303940186D1C02902878014676
:1037D00030390929F3D928786C2810D006DC4C2818
:1037E0001AD068280ED06A2817D104E0742813D0A4
:1037F0007A2812D110E00120400504430CE0012199
:10380000090501E0032109050C436978814203D1D0
:103810000120000524186D1C6D1C28786E281ED010
:103820000CDC632831D004DC00288BD0582811D15F
:10383000B2E064287BD069280CD178E073282DD0C1
:1038400004DC6F2870D0702804D1A7E075286CD0F4
:1038500078286BD0149A13999047761C62E0600226
:10386000400F022807D003280AD0042838680AD05D
:1038700006603F1D56E03868F11706604160F8E7C2
:1038800038680680F5E70670F3E73878694608740B
:103890000020487404A80390012003E038680390D6
:1038A0000020C0433F1D61070FD5002101E00199B1
:1038B000491C029A0191914213DA8142F7DB019A85
:1038C0000399895C0029F2D10BE0002101E0019904
:1038D000491C01918142FADB019A0399895C002914
:1038E000F5D101990098139A401A00902146149B33
:1038F00000F03CF901998019461807E003980399F4
:103900000078491C0391149A139990470198401E1E
:103910000190401CF2D12146149B139A009800F0AC
:1039200015F986196D1C0AE741E033E034E00A20FE
:103930000021049005916002410F022905D001CFBA
:10394000C2179446032905D007E0FF1DFF08FF00BA
:1039500003CF06E000B2C2179446042902D140B258
:10396000C1178C4600226146944506DA0A460021BA
:10397000404291418C462D2102E0210504D52B21A6
:103980006A461176012103E0E10701D02021F7E723
:10399000019155E00A200BE0102009E0102004906E
:1039A00000210420044308200591029003E0082030
:1039B0000021059104906002410F022905D001CF3A
:1039C00000229446032906D006E0FF1DFF08FF00F1
:1039D00003CF8C4603E080B2042900D1C0B200219D
:1039E000019121072CD529780391702906D0049ADA
:1039F0001021059B4A401A4305D00EE040216A463B
:103A00001176012108E06146014306D030216A4663
:103A100011760399517602210191049A0821059BA0
:103A20004A401A430CD16146014301D1610707D5D1
:103A300030216A461176012101910299491E0291B5
:103A40002978582904D037A103910FA90F910DE0CF
:103A500039A1F9E76146059B049AFCF761FB039BDA
:103A60008C469B5C0F9A521E0F9213706146014365
:103A7000F0D10F9807A9081A20300390600704D5E9
:103A8000012000048443029801E001200290039980
:103A9000884201DD401A00E00020411802900198A0
:103AA00009180098401A0090E00306D42146149BA0
:103AB000139A009800F05AF886190020049008E044
:103AC00006A9085C149A139990470498401C761C28
:103AD000049001998842F3DBE0030CD52146149B46
:103AE000139A009800F042F8861904E0149A3020E6
:103AF00013999047761C0299481E02900029F5DC24
:103B000008E00F980F990078491C0F91149A1399A7
:103B10009047761C0399481E03900029F1DCFAE6D1
:103B20000928010030313233343536373839616293
:103B30006364656600000000303132333435363757
:103B4000383941424344454600000000F8B5044678
:103B500000251E461746880404D405E03946202077
:103B6000B0476D1C641EF9D52846F8BDFFB5044664
:103B7000002581B01E46C80301D5302700E020276C
:103B8000880404D505E038460399B0476D1C641ECF
:103B9000F9D5284605B0F0BD13B50023DB4301225B
:103BA00069460248FEF79AF800981CBDDC00002028
:103BB00070B50D46040024D0124E707800280DD147
:103BC000FF2101311048FCF72DFD1049002801D0DC
:103BD000012000E00020087001207070207831780A
:103BE00088420ED0002803D0012804D108A000E0AC
:103BF0000AA0FFF755FD002D01D02078A8472078B6
:103C0000307070BD0D000020000400500F00002037
:103C100048414C4C5F4641520D0A000048414C4C13
:103C20005F4E4541520D0A000170704710B50448BF
:103C300041684A1C426003A0FFF732FD10BD00003E
:103C4000000000204D43553A25640D0A0000000095
:103C5000FCF726FFFEF71FFF1348FCF7A1FBFEF75A
:103C600035FAFEF70DFBFEF7D3FAFEF7A5FAFEF7DD
:103C70003BFB00F023F80D48FDF7FAFB002801D0CC
:103C8000FCF7E0FA00F05CF900F06AF8FEF780FE5D
:103C9000074800F033F900210648FFF789FF06497D
:103CA000642000F021F9F3E7881300009000002061
:103CB000FC0100200F0000202D3C000810B508A0DA
:103CC000FFF7EEFC11A113A0FFF7EAFC17A21AA15F
:103CD0001CA0FFF7E5FC02A0FFF7E2FC10BD00000E
:103CE0002A2A2A2A2A2A2A2A2A2A2A2A2A2A2A2A34
:103CF0002A2A2A2A2A2A2A2A2A2A2A2A2A2A2A2A24
:103D00002A2A2A2A2A2A2A2A2A0D0A0056312E303D
:103D10002E3000004669726D7761726520566572BB
:103D200073696F6E3A2025730D0A000030393A33FB
:103D3000313A3139000000004170722031352032B3
:103D400030323500436F6D70696C65204461746575
:103D50003A2025732054696D653A2025730D0A00B9
:103D600038B50020694608800446451E641CA4B28C
:103D700069460C20FCF772FA6846008800064CD5AC
:103D80003C20FCF70DFB69463020FCF767FA6846DB
:103D90000088C00514D5FEF7C7FA00280ED127A069
:103DA000FFF77EFC02210846FCF76EFA00211E2078
:103DB000FCF76AFA0520FCF7F3FA04E026A02FE0EE
:103DC0002AA0FFF76DFC002469460220FCF746FAA2
:103DD0006846008802281ED0641CA4B269460C20E4
:103DE000FCF73CFA68460088000621D53C20FCF729
:103DF000D7FAFEF799FA0028E0D110A0FFF750FC9F
:103E000002210846FCF740FA00211E20FCF73CFA8C
:103E10000520FCF7C5FA002038BD142C04D91BA0DE
:103E2000FFF73EFC284638BD1420FCF7B9FA9DE7A1
:103E3000142CF4D81420FCF7B3FACDE752543934DB
:103E400032365F696E69745F737563636573736639
:103E5000756C0D0A000000005254393432365F6927
:103E60006E69745F6661696C0D0A00004E6F5F4E8B
:103E70006565645F746F5F7265696E6974696C5FB4
:103E80005254393432360D0A00000000525439348D
:103E900032365F696E69745F6572726F720D0A0007
:103EA00070B590B040220A496846FCF769F9094E9E
:103EB00000246D466000325AA000295806A0FFF782
:103EC000EFFB641CE4B2102CF4D310B070BD000002
:103ED000603F00082400002025733A203078253008
:103EE00034780D0A00000000034A1378002B01D13A
:103EF00010700847704700000000002070B50546AC
:103F00000078002813D00AA0FFF7CAFB002406E0BF
:103F10002819417807A0FFF7C3FB641CE4B2287896
:103F2000A042F5D805A0FFF7BBFB0020287070BDAC
:103F30003A3C000020307825303278000D0A00002D
:103F400010B521210448FCF734F903480122034944
:103F50009038FDF763FE10BDFC0100200C0000202E
:103F60000C420008F4410008E8410008D441000870
:103F700000420008BC410008CC410008C4410008D0
:103F8000B4410008AC410008884100089441000891
:103F9000A0410008E041000800000000000000000F
:103FA00001004E00060802004E00044403004E00CB
:103FB00006B705004600054105004800040205005B
:103FC0004C00233206004000138806004200248281
:103FD0000600440077AD0600480012A306004A0020
:103FE000526806004C00576406004E001E0407008D
:103FF00040001E13070042000504070044000404AB
:1040000007004600020207004800010107004A00BD
:10401000020207004C00020007004E0000FF0800EB
:104020004000FDFA08004200FAFA08004400F9F9DD
:1040300008004600F4EF08004800FAFA08004A00B9
:10404000FAF808004C00F8E908004E00D50000001E
:104050001300C044004B1A56D3590D5C935CC65DE7
:104060004D5F2060D3606D613A62BA64CD66FA67D5
:104070001A695A6AAD6B6D7000191A0BDE0258028C
:1040800022004000300032004200530075007F00E3
:1040900082007B0089008E006200E601130080FF31
:1040A000000000029A0480064D0EE6171A289A3086
:1040B0000036B339333D4D47804F66549A581A5DE8
:1040C000006400690A00170059006D006E070004C3
:1040D00050052705DB03150330020502FA0116021D
:1040E000DE01CD019B0287003DFF000000000000C3
:1040F0004572726F725F48616E646C657200010098
:1041000002000400060008000A000C001000200055
:1041100040008000000101010103070100000804C4
:10412000020408010101000000000000000000007E
:10413000000000000000000000000000000000007F
:10414000000000000000000001000000020000006C
:10415000030000000400000006000000070000004B
:10416000080000000900000000000000000000003E
:10417000000000000000000001000000020000003C
:1041800003000000040000005245475F464C4147D1
:10419000310000005245475F464C41473200000065
:1041A0005245475F464C4147330000005245475F48
:1041B000464343005245475F444300005245475F32
:1041C000534F43005245475F534F48005245475FA6
:1041D000524D00005245475F54454D5000000000CD
:1041E0005245475F495251005245475F435552522D
:1041F000000000005245475F564241540000000055
:104200005245475F494E545400000000537973747F
:10421000656D5F54696D650038420008000000203C
:1042200024000000043700085C420008240000203D
:10423000FC0500001437000800000000000000002A
:104240007856341200020000010000000400000053
:0C425000000000000024F400000000004A
:04000005080000C12E
:00000001FF
